:020000040800F2
:1000000000000220552A0008892500088B250008D9
:100010008D2500088F2500089125000800000000AC
:10002000000000000000000000000000F15800087F
:10003000932500080000000091590008952500084C
:10004000A52A0008A52A0008A52A0008A52A000854
:10005000A52A0008A52A0008AB250008A52A000843
:10006000A52A0008B5250008BF250008A52A000814
:10007000C9250008A52A0008A52A0008A52A000805
:10008000A52A0008A52A0008A52A0008A52A000814
:10009000D9250008A52A0008A52A0008E925000896
:1000A000A52A0008A52A0008A52A0008A52A0008F4
:1000B000A52A0008A52A0008A52A0008A52A0008E4
:1000C000A52A0008A52A0008A52A0008A52A0008D4
:1000D000A52A0008F5250008A52A00088DA4000817
:1000E000A52A0008A52A0008A52A0008A52A0008B4
:1000F000A52A0008A52A0008A52A0008A52A0008A4
:10010000A52A0008A52A0008A52A0008A52A000893
:10011000A52A0008A52A0008A52A0008A52A000883
:10012000A52A0008A52A00080526000819260008A7
:10013000A52A0008A52A0008A52A0008A52A000863
:1001400029260008A52A0008A52A0008A52A0008D3
:1001500039260008A52A0008A52A0008A52A0008B3
:10016000A52A0008A52A0008A52A0008A52A000833
:10017000A52A0008A52A0008A52A000800000000FA
:08018000A52A0008A52A0008C9
:1001C00010B5054C237833B9044B13B10448AFF391
:1001D00000800123237010BD0409002000000000EE
:1001E00098BF000808B5034B1BB103490348AFF3A0
:1001F000008008BD000000000809002098BF00082A
:1002000070B54FF0FF0C4CF4E06C1CEA11541DBFAC
:100210001CEA135594EA0C0F95EA0C0F00F0DEF877
:100220002C4481EA030621EA4C5123EA4C5350EA5C
:10023000013518BF52EA033541F4801143F48013AD
:1002400038D0A0FB02CE4FF00005E1FB02E506F03E
:100250000042E0FB03E54FF00006E1FB03569CF093
:10026000000F18BF4EF0010EA4F1FF04B6F5007F99
:1002700064F5407404D25FEA4E0E6D4146EB06060B
:1002800042EAC62141EA55514FEAC52040EA5E5094
:100290004FEACE2EB4F1FD0C88BFBCF5E06F1ED83E
:1002A000BEF1004F08BF5FEA500E50F1000041EB75
:1002B000045170BD06F0004646EA010140EA020022
:1002C00081EA0301B4EB5C04C2BFD4EB0C0541EA44
:1002D000045170BD41F480114FF0000E013C00F359
:1002E000AB8014F1360FDEBF002001F0004170BD7D
:1002F000C4F10004203C35DA0C341BDC04F1140496
:10030000C4F1200500FA05F320FA04F001FA05F221
:1003100040EA020001F0004221F0004110EBD370EE
:1003200021FA04F642EB06015EEA430E08BF20EA1A
:10033000D37070BDC4F10C04C4F1200500FA04F3BD
:1003400020FA05F001FA04F240EA020001F000414F
:1003500010EBD37041F100015EEA430E08BF20EAC2
:10036000D37070BDC4F1200500FA05F24EEA020E0A
:1003700020FA04F301FA05F243EA020321FA04F039
:1003800001F0004121FA04F220EA020000EBD370F0
:100390005EEA430E08BF20EAD37070BD94F0000FF0
:1003A0000FD101F00046400041EB010111F4801F24
:1003B00008BF013CF7D041EA060195F0000F18BFD5
:1003C000704703F00046520043EB030313F4801F11
:1003D00008BF013DF7D043EA0603704794EA0C0FCB
:1003E0000CEA135518BF95EA0C0F0CD050EA4106E1
:1003F00018BF52EA4306D1D181EA030101F000415E
:100400004FF0000070BD50EA410606BF1046194685
:1004100052EA430619D094EA0C0F02D150EA013691
:1004200013D195EA0C0F05D152EA03361CBF1046D2
:1004300019460AD181EA030101F0004141F0FE4171
:1004400041F470014FF0000070BD41F0FE4141F4F5
:10045000780170BD81F0004102E000BF83F00043ED
:1004600030B54FEA41044FEA430594EA050F08BF4F
:1004700090EA020F1FBF54EA000C55EA020C7FEA13
:10048000645C7FEA655C00F0E2804FEA5454D4EB90
:100490005555B8BF6D420CDD2C4480EA020281EA5A
:1004A000030382EA000083EA010180EA020281EA92
:1004B0000303362D88BF30BD11F0004F4FEA0131E4
:1004C0004FF4801C4CEA113102D0404261EB4101F3
:1004D00013F0004F4FEA03334CEA133302D0524279
:1004E00063EB430394EA050F00F0A780A4F1010435
:1004F000D5F1200E0DDB02FA0EFC22FA05F280186F
:1005000041F1000103FA0EF2801843FA05F3594154
:100510000EE0A5F120050EF1200E012A03FA0EFCD3
:1005200028BF4CF0020C43FA05F3C01851EBE371FD
:1005300001F0004507D54FF0000EDCF1000C7EEB1A
:1005400000006EEB0101B1F5801F1BD3B1F5001F58
:100550000CD349085FEA30004FEA3C0C04F1010477
:100560004FEA445212F5800F80F09A80BCF1004FA0
:1005700008BF5FEA500C50F1000041EB045141EA22
:10058000050130BD5FEA4C0C404141EB0101013CEB
:1005900028BFB1F5801FE9D291F0000F04BF0146DA
:1005A0000020B1FA81F308BF2033A3F10B03B3F1AC
:1005B00020020CDA0C3208DD02F1140CC2F10C023C
:1005C00001FA0CF021FA02F10CE002F11402D8BF9A
:1005D000C2F1200C01FA02F120FA0CFCDCBF41EA66
:1005E0000C019040E41AA2BF01EB0451294330BD35
:1005F0006FEA04041F3C1CDA0C340EDC04F1140412
:10060000C4F1200220FA04F001FA02F340EA0300E8
:1006100021FA04F345EA030130BDC4F10C04C4F12E
:10062000200220FA02F001FA04F340EA030029460E
:1006300030BD21FA04F0294630BD94F0000F83F458
:10064000801306BF81F480110134013D4EE77FEA3B
:10065000645C18BF7FEA655C29D094EA050F08BF87
:1006600090EA020F05D054EA000C04BF1946104668
:1006700030BD91EA030F1EBF0021002030BD5FEAAC
:10068000545C05D14000494128BF41F0004130BDD4
:1006900014F580043CBF01F5801130BD01F0004528
:1006A00045F0FE4141F470014FF0000030BD7FEA9B
:1006B000645C1ABF194610467FEA655C1CBF0B4696
:1006C000024650EA013406BF52EA033591EA030FAD
:1006D00041F4002130BD00BF90F0000F04BF0021A5
:1006E000704730B54FF4806404F132044FF00005D8
:1006F0004FF0000150E700BF90F0000F04BF002151
:10070000704730B54FF4806404F1320410F00045B6
:1007100048BF40424FF000013EE700BF42004FEAB1
:10072000E2014FEA31014FEA02701FBF12F07F432E
:1007300093F07F4F81F06051704732F07F4208BFE5
:10074000704793F07F4F04BF41F40021704730B5EC
:100750004FF4607401F0004521F000411CE700BF38
:1007600050EA010208BF704730B54FF000050AE0BB
:1007700050EA010208BF704730B511F0004502D5BC
:10078000404261EB41014FF4806404F132045FEABE
:10079000915C3FF4D8AE4FF003025FEADC0C18BF67
:1007A00003325FEADC0C18BF033202EBDC02C2F159
:1007B000200300FA03FC20FA02F001FA03FE40EAEB
:1007C0000E0021FA02F11444BDE600BF4FEA4102D7
:1007D000B2F1E04324BFB3F5001CDCF1FE5C0DD99F
:1007E00001F0004C4FEAC0024CEA5070B2F1004FE9
:1007F00040EB830008BF20F00100704711F0804FEC
:1008000021D113F13872BCBF01F00040704741F4B0
:1008100080114FEA5252C2F11802C2F1200C10FAB4
:100820000CF320FA02F018BF40F001004FEAC12398
:100830004FEAD32303FA0CFC40EA0C0023FA02F33C
:100840004FEA4303CCE77FEA625307D150EA013312
:100850001EBF4FF0FE4040F44000704701F00040E2
:1008600040F0FE4040F40000704700BF53B94AB961
:10087000002908BF00281CBF4FF0FF314FF0FF30A8
:1008800001F0DEB8ADF1080C6DE904CE00F006F819
:10089000DDF804E0DDE9022304B070472DE9F047FC
:1008A000089D04468E46002B4DD18A42944669D954
:1008B000B2FA82F252B101FA02F3C2F1200120FA37
:1008C00001F10CFA02FC41EA030E94404FEA1C4885
:1008D000210CBEFBF8F61FFA8CF708FB16E341EA81
:1008E000034306FB07F199420AD91CEB030306F107
:1008F000FF3080F01F81994240F21C81023E634428
:100900005B1AA4B2B3FBF8F008FB103344EA0344CB
:1009100000FB07F7A7420AD91CEB040400F1FF33E0
:1009200080F00A81A74240F207816444023840EA1D
:100930000640E41B00261DB1D4400023C5E9004356
:100940003146BDE8F0878B4209D9002D00F0EF80D9
:100950000026C5E9000130463146BDE8F087B3FA0C
:1009600083F6002E4AD18B4202D3824200F2F980F4
:10097000841A61EB030301209E46002DE0D0C5E9F7
:10098000004EDDE702B9FFDEB2FA82F2002A40F043
:100990009280A1EB0C014FEA1C471FFA8CFE012646
:1009A000200CB1FBF7F307FB131140EA01410EFBEA
:1009B00003F0884208D91CEB010103F1FF3802D291
:1009C000884200F2CB804346091AA4B2B1FBF7F08B
:1009D00007FB101144EA01440EFB00FEA64508D9AE
:1009E0001CEB040400F1FF3102D2A64500F2BB80EB
:1009F0000846A4EB0E0440EA03409CE7C6F120073A
:100A0000B34022FA07FC4CEA030C20FA07F401FA7F
:100A100006F31C43F9404FEA1C4900FA06F3B1FB08
:100A2000F9F8200C1FFA8CFE09FB181140EA01416D
:100A300008FB0EF0884202FA06F20BD91CEB01010A
:100A400008F1FF3A80F08880884240F28580A8F162
:100A500002086144091AA4B2B1FBF9F009FB1011B4
:100A600044EA014100FB0EFE8E4508D91CEB010152
:100A700000F1FF346CD28E456AD90238614440EAF5
:100A80000840A0FB0294A1EB0E01A142C846A64675
:100A900056D353D05DB1B3EB080261EB0E0101FAFE
:100AA00007F722FA06F3F1401F43C5E9007100265B
:100AB0003146BDE8F087C2F12003D8400CFA02FCB1
:100AC00021FA03F3914001434FEA1C471FFA8CFEC1
:100AD000B3FBF7F007FB10360B0C43EA064300FBB1
:100AE0000EF69E4204FA02F408D91CEB030300F14F
:100AF000FF382FD29E422DD9023863449B1B89B206
:100B0000B3FBF7F607FB163341EA034106FB0EF38E
:100B10008B4208D91CEB010106F1FF3816D28B423B
:100B200014D9023E6144C91A46EA004638E72E4607
:100B3000284605E70646E3E61846F8E64B45A9D2FF
:100B4000B9EB020864EB0C0E0138A3E74646EAE76E
:100B5000204694E74046D1E7D0467BE7023B61441C
:100B600032E7304609E76444023842E703685A0036
:100B70004CBF43F0004323F000431844704700BFCC
:100B80002DE9F84329B34F1E044615463E464FF063
:100B9000000808EB060101EBD171491004EBC10913
:100BA0004846FFF7E3FF0346C80008308F42204461
:100BB00009D0AB4209D8FFF7D9FF0138A8420AD2C1
:100BC00001F10108E5E7AB4205D9884501D04E1E89
:100BD000DFE74FF000094846BDE8F883012807D059
:100BE000022807D0044B00280CBF1846002070478D
:100BF0000248704702487047B5120008B912000851
:100C0000BD12000830B5234B83B004468D1E3BB3A4
:100C100001A92846AFF30080E8B101992A46FFF701
:100C2000AFFF0146B8B1FFF7A1FF4B68A064012BED
:100C30002CD0002B01F1040024DBFFF797FF0023E9
:100C4000C4E913030368002B11DBFFF78FFF20615A
:100C5000002003B030BD00230920236103B030BD64
:100C60000D4B0E49C91AC91018460191D6E7C3F3B6
:100C70000360FFF7B3FF0028206114BF00200920A4
:100C800003B030BD0123C4E91303DBE70023236174
:100C90000520DEE70000000058D4000820D5000839
:100CA0000368DA0710B5044606D49B0700F1480034
:100CB00009D500F05BFC2368590709D51A070ED542
:100CC000DB0613D510BD00F049FC23685907F5D4A5
:100CD00004F1D00000F052FC23681A07F0D404F5A8
:100CE000A87000F053FC2368DB06EBD404F5E87031
:100CF000BDE8104000F08EBC092070470346006834
:100D000000B11844704700BF704700BF70B504467B
:100D10000E46316C2046FFF775FF054688B9326CE8
:100D20006261236932462146012098470828F0D0A5
:100D3000072806D12846316CFFF7E6FF301D00F08A
:100D400001FC0AF01BF800BF2DE9F0470D1DD0F89B
:100D50000C80D0F81890074614460FCDADF5727D83
:100D60000DF10C0CACE80F000FCDACE80F000FCD6F
:100D7000ACE80F0095E80F0002AE4FF0000E8CE8D3
:100D80000F00C6F800E020E0336C7B614FF4F07296
:100D900031467AA800F0A4FE3B697AAA394650464B
:100DA0009847889B73642146CDE9006905463B4618
:100DB0003A460120C0470446E0B94FF4F0727AA9E0
:100DC000304600F08DFE082D1AD1316C3846FFF701
:100DD00019FF09345FFA84FA05460028D4D0B36BB2
:100DE00073643A46CDE900693B464AF010010120A0
:100DF000C04700B1092528460DF5727DBDE8F08792
:100E0000072DF7D12046316CFFF77EFF03A800F0D5
:100E100099FB00BF406C7047F0B5CB6B0B6401F1E0
:100E2000040C0E460546BCE80F00F9B001AC0FC437
:100E3000BCE80F000FC4BCE80F000FC49CE80F0013
:100E40004FF0FF3784E80F00009706E02B696A46F1
:100E5000294698470828044608D110992846FFF7E4
:100E6000D1FE0028F2D0092079B0F0BD6846FFF726
:100E700017FF062CF7D131462846FFF747FF00BF82
:100E8000C160D96B82611964002219465CE700BF1A
:100E900070B5C66843690B64AEB903690A46044677
:100EA0000D46014602209847072805D008280FD193
:100EB00029462046FFF72AFF3046296CFFF724FF1A
:100EC000281D00F03FFB0122FFF73EFF09F056FF0F
:100ED00009F054FFC2681AB1CA6B0A64002233E7F2
:100EE0009AE700BF704700BF836801460BB101203D
:100EF00018477047012912D009D873B90F2A0CD8A6
:100F000000EB820218465368009A13607047033959
:100F1000012994BF01200220704702207047084633
:100F2000704700BF00B585B00A46002303A90091B1
:100F30001946FFF7DFFF039805B05DF804FB00BF1B
:100F4000012912D009D873B90F2A0CD800EB8200FE
:100F5000009A12684260184670470339012994BF0D
:100F6000012002207047022070470846704700BFEA
:100F700010B584B0002303AC039200940A461946CE
:100F8000FFF7DEFF04B010BD70B5D36B136402F140
:100F9000040C05460C46BCE80F00ADF50E7D0DF1C6
:100FA0005C0EAEE80F00BCE80F00AEE80F00BCE836
:100FB0000F00AEE80F009CE80F004FF0FF368EE800
:100FC0000F00169610E0FFF7D3FF214616A8A8479A
:100FD000034616AA6946082083B9049B984705284A
:100FE00006460CD0092809D026996846FFF70AFE64
:100FF00003466A460C2116A8002BE4D0092616A841
:10100000FFF74EFE30460DF50E7D70BD2DE9F04F19
:10101000CC6C89B01E4654F8043B06940D46174626
:1010200000F00308002E79D01A0C1B0405938DF8EC
:101030001D200223D2B204EB82048DF81C302B6DEC
:10104000B8F1020F08BFAC6B13F001030CD005A977
:10105000384600F079FB18B9082009B0BDE8F08FD8
:10106000092009B0BDE8F08FD4F800A0BAF1000F54
:10107000EDD0019300F008030293022E4AD0B4F899
:1010800000A0B4F802900434AB6C29F0010B0F21DE
:1010900038469B44FFF746FF834539D82AF00103C1
:1010A0009B44834594BF002001204FEA490303F08D
:1010B00002030AF0010A43EA0A03012B49D0022B7A
:1010C00032D0002BCCD1B8F1000F02D0002840F074
:1010D000CD800434D4F800A0BAF1000FCDD105A919
:1010E000384600F031FB0028BAD1019B002BB3D069
:1010F0000F213846FFF716FF0E2102463846FFF74C
:1011000037FF38466A4A0F21FFF732FF0720A8E76A
:101110000020CAE7D4F804900834B5E71B02059311
:101120000323ADF81C308AE7236823F0004BB8F1A5
:10113000000F45D128B1029A002A5CD0BBF1000F04
:1011400074D0002B00DA04340BF1010B04EB8B0498
:10115000C0E7B8F1000F19D1B0B163682268991CDB
:101160004FEAD2723FF47CAF05F15801013304918C
:1011700000F09080201DFFF7C1FD04AB014628461A
:10118000AFF3008000285BD10834A3E70D21384677
:10119000D5F82090FFF7C6FE8145F5D1AB6A9C4299
:1011A000F2D12046FFF7E2FC0F2102463846FFF756
:1011B000DFFE38462A460021FFF7DAFE072050E717
:1011C0000D213846D5F82090FFF7ACFE814501D0BF
:1011D0002368B6E7AB6A9C42FAD104230022C5E932
:1011E0000B23E318C5F828B06B632368002B59DB89
:1011F00001230193A8E705F15803CDF80C8004F111
:10120000040AB04691461E460EE050460496FFF78B
:1012100075FD0022014604AB284609F101090AF1D7
:10122000040AAFF30080E0B9D945EED10D2138466C
:10123000FFF778FE049BAC62C5E90803062010E7BF
:1012400081460D213846FFF76DFEB9F1020F286285
:1012500025D12B46049A43F82C2F6B62AC620620F2
:10126000FFE646462368DDF80C806AE72046FFF774
:101270007DFC04340246AC6328461446AFF300807C
:1012800000283FF4EDAE384622460F21FFF770FEEE
:101290000720E6E60D213846FFF744FE2862049B4E
:1012A0006B62DBE70BF1010004EB80007AE700BF23
:1012B000000000000023A9E60123A7E60223A5E61B
:1012C0002DE9F0430646C3B015461C46042900F23A
:1012D000BF80DFE801F09E57BD2D0300002C40F0D9
:1012E000B780102A00F2B4800368D80600F1F980B4
:1012F00020AF384600F098F9B46B394600234FF020
:10130000010C0CFA03F22A42204603F1010303D038
:1013100050F8042B0A600446042B01F10401F0D1BB
:101320003846B46300F076F9002043B0BDE8F0839E
:10133000032C40F08D8094B204EB1243102B4FEA43
:10134000124500F2858003681F0700F1D28020AFAC
:10135000384600F03DF9B26B07EBC50154B10B46BE
:10136000D01A01EBC401E4001D5843F8045B8B4222
:10137000FAD122443846B26300F008F9002043B0A5
:10138000BDE8F083012C4FEA124895B25CD0052CE1
:101390005ED108EB0509B9F1200F59D8B8F10F0F4C
:1013A00079D9A946002D40F08A80B36B6DB320AF88
:1013B0004FF0000907EBC807043F03EBC50553F8DE
:1013C000041B47F8041FAB42F9D1B9F1000F0FD04D
:1013D0006F464146102938BF102107EBC1018439FF
:1013E00003EBC90553F8040B41F8040FAB42F9D1E4
:1013F000012C00F08680B8F10F0FB56347D9B9F121
:10140000000F02D0684600F0B9F8002043B0BDE8F4
:10141000F083ECB9806B23461FFA82FC0124371D50
:1014200004FA03F212EA0C0F014604D051F8042B1F
:1014300047F8232008460133102BF1D115F400554D
:10144000E3D1B063284604E008EB0503102B03D971
:10145000022043B0BDE8F083B8F10F0FF8D833682D
:10146000DA0706D5304623F0030340F8483B00F086
:1014700079F820AF384600F075F8B36B002D97D19E
:101480001D460435B563384600F068F8BDE720A86E
:1014900000F06CF8B3E7B9F1100F40D9A9F11009C9
:1014A0003368D90708D523F00103304643F002031F
:1014B00040F8483B00F05EF8B9F1000F32D03368D5
:1014C0005A0720D4B8F10F0F25D96F463846C8F116
:1014D000100500F057F8002DB36B7FF77AAF20AFFF
:1014E00068E723F01003336006F5E87000F09CF81D
:1014F000FEE623F00803036000F5A87000F068F82A
:1015000025E720AFBDE7304623F0040340F8D03B89
:1015100000F038F8D6E720A800F02CF8D5E74FF017
:101520000009BDE7B8F10F0F3FF63FAF20AF3846D7
:1015300000F020F8B36B002D7FF43AAF384600F08E
:1015400015F862E700F1340191E838009C46A646A0
:101550004CF8045D90E8FF0FE54600BD90EC210BD0
:10156000704700BF80EC210B704700BF90EC200B50
:10157000704700BF80EC200B704700BFD0EC200B01
:10158000704700BFC0EC200B704700BFF0EC0201B9
:10159000F0EC0211F0EC0221F0EC0231F0EC02412F
:1015A000F0EC0251F0EC0261F0EC0271F0EC02811F
:1015B000F0EC0291F0EC02A1F0EC02B1F0EC02C10F
:1015C000F0EC02D1F0EC02E1F0EC02F1704700BF68
:1015D000E0EC0201E0EC0211E0EC0221E0EC02316F
:1015E000E0EC0241E0EC0251E0EC0261E0EC02715F
:1015F000E0EC0281E0EC0291E0EC02A1E0EC02B14F
:10160000E0EC02C1E0EC02D1E0EC02E1E0EC02F13E
:10161000704700BFB0FC0181B0FC0191B0FC01A19A
:10162000B0FC01B1704700BFA0FC0181A0FC01919A
:10163000A0FC01A1A0FC01B1704700BFEC4600B5C1
:101640002DE900502DE9FF1F4FF000032DE90C009C
:1016500001A9FFF7E1FBDDF840E012B0704700BFE1
:10166000EC4600B52DE900502DE9FF1F4FF00003B7
:101670002DE90C0001A9FFF70BFCDDF840E012B0EA
:10168000704700BFEC4600B52DE900502DE9FF1F63
:101690004FF000032DE90C0001A9FFF71BFCDDF85A
:1016A00040E012B0704700BFEC4600B52DE9005095
:1016B0002DE9FF1F4FF000032DE90C0001ABFFF7F0
:1016C000DFFBDDF840E012B0704700BFEC4600B52C
:1016D0002DE900502DE9FF1F4FF000032DE90C000C
:1016E00001AAFFF751FCDDF840E012B0704700BFDF
:1016F000027A03467AB9427AA2B14168013A10B43B
:101700004272086803220C1D1A7202025C60000E0D
:1017100010BC1A6070470068013A1A7202021A601F
:10172000000E7047B020704700B585B0002303AAB3
:10173000009219460C22FFF7DDFB039805B05DF817
:1017400004FB00BFF0E700BF2DE9F043054685B07C
:101750000E464FF000083046FFF7CAFFB028044697
:1017600000F0BA80070620D500F0F003802B4DD0A2
:10177000902B36D0A02B60D0B02B74D0C02B00F0B3
:101780008B8000F0F803D02B0BD100F00702013260
:10179000052342F4002201212846FFF791FD00288D
:1017A000D9D0092005B0BDE8F0838300DBB21F1D4E
:1017B0000DF10C0900231946CDF800900D222846A2
:1017C000FFF798FB039BCDF8009060064CBFDF1B32
:1017D000FF1800230D22194628460397FFF7B0FB98
:1017E000B9E700F00D030D2BDBD003AF002300F0B1
:1017F0000F02194600972846FFF77CFB002300974D
:101800000D2219462846FFF79BFBA4E73046FFF759
:101810006FFF24022043B0F5004FC2D00401002323
:10182000A2B219462846FFF74BFD0028B9D114F49F
:10183000004F18BF4FF001088DE7C24302F00703C5
:101840004FF47F621A41010702F47F624FF00003F8
:1018500048BF42F4804219462846FFF731FD002870
:101860003FF479AF9DE7B1283BD0B22800F09380D8
:10187000B32841D000F0FC03B42B92D000F0070253
:101880000132012342F4002219462846FFF718FDD1
:1018900000283FF460AF84E7C6284AD0C72854D058
:1018A00000F0F803C02B63D0C82868D0C9287FF4A3
:1018B00078AF3046FFF71CFF020300F00F0002F480
:1018C000702201300243012105232846FFF7F8FC6E
:1018D00000283FF440AF64E7B8F1000F18D00020B3
:1018E00060E73046FFF704FF024600283FF459AF97
:1018F00010F0F003C8D054E73046FFF7F9FE0203BA
:1019000000F00F03013302F470221A430123BBE7F6
:1019100003AC43460E22414600942846FFF7EAFAFC
:10192000009443460F2241462846FFF709FB4046F4
:1019300038E73046FFF7DCFE020300F00F03013307
:1019400002F470221A4303239EE73046FFF7D0FECD
:10195000024600283FF425AF10F0F0037FF421AFDA
:1019600004212846FFF7ACFC00283FF4F4AE18E74A
:1019700000F00F020132032342F4202284E73046B4
:10198000FFF7B6FE00F0F00200F00F031032013353
:1019900043EA023297E700230DF10C090D221946A4
:1019A000CDF800902846FFF7A5FA3046FFF7A0FED5
:1019B00002064FF002040CD5039B00F07F00A0400C
:1019C000184403903046FFF793FE030604F1070422
:1019D000F2D4039BCDF8009000F07F02A24003F503
:1019E00001731A440023039219460D222846FFF77B
:1019F000A7FAB0E610B5C26C536884B04FF0030C80
:101A000008321C0208461B0E01A9019402928DF8AF
:101A10000CC08DF80D30FFF797FE04B010BD00BF6D
:101A200008B5FFF78FFE806C08BD00BF08B5FFF753
:101A300089FEC06CC379023300EB830008BD00BF90
:101A4000704700BF70B4840746D04C1E002941D0B7
:101A5000D5B2034602E0611EE4B30C4603F8015B15
:101A60009907F8D1032C2ED9D5B245EA05250F2CBC
:101A700045EA054519D9264603F11001103E0F2EFF
:101A800041F8105C41F80C5C41F8085C41F8045CDA
:101A900001F11001F2D8A4F1100121F00F0104F0BE
:101AA0000F041031032C0B440DD91E462146043976
:101AB000032946F8045BFAD8211F21F00301043101
:101AC0000B4404F003042CB1D2B21C4403F8012BE4
:101AD000A342FBD170BC70470C460346C2E700002E
:101AE000844641EA000313F003036DD1403A41D329
:101AF00051F8043B40F8043B51F8043B40F8043BE8
:101B000051F8043B40F8043B51F8043B40F8043BD7
:101B100051F8043B40F8043B51F8043B40F8043BC7
:101B200051F8043B40F8043B51F8043B40F8043BB7
:101B300051F8043B40F8043B51F8043B40F8043BA7
:101B400051F8043B40F8043B51F8043B40F8043B97
:101B500051F8043B40F8043B51F8043B40F8043B87
:101B600051F8043B40F8043B51F8043B40F8043B77
:101B7000403ABDD2303211D351F8043B40F8043B17
:101B800051F8043B40F8043B51F8043B40F8043B57
:101B900051F8043B40F8043B103AEDD20C3205D327
:101BA00051F8043B40F8043B043AF9D2043208D01F
:101BB000D2071CBF11F8013B00F8013B01D30B8891
:101BC00003806046704700BF082A13D38B078DD06F
:101BD00010F003038AD0C3F10403D21ADB071CBF41
:101BE00011F8013B00F8013B80D331F8023B20F8AB
:101BF000023B7BE7043AD9D3013A11F8013B00F8E4
:101C0000013BF9D20B7803704B7843708B7883706B
:101C10006046704700000000000000000000000067
:101C200000000000000000000000000000000000B4
:101C300000000000000000000000000000000000A4
:101C400090F800F06DE9024520F007016FF0000CFC
:101C500010F0070491F820F040F049804FF00004A4
:101C60006FF00700D1E9002391F840F000F108007F
:101C700082FA4CF2A4FA8CF283FA4CF3A2FA8CF3B7
:101C80004BBBD1E9022382FA4CF200F10800A4FA1E
:101C90008CF283FA4CF3A2FA8CF3E3B9D1E9042372
:101CA00082FA4CF200F10800A4FA8CF283FA4CF3A9
:101CB000A2FA8CF37BB9D1E9062301F1200182FA63
:101CC0004CF200F10800A4FA8CF283FA4CF3A2FA69
:101CD0008CF3002BC6D0002A04BF04301A4612BA77
:101CE000B2FA82F2FDE8024500EBD2007047D1E97A
:101CF000002304F00305C4F100004FEAC50514F009
:101D0000040F91F840F00CFA05F562EA05021CBFD9
:101D100063EA050362464FF00004A9E708B50D48E1
:101D20000D4B03600323436000238360C3604FF4C3
:101D3000102202614FF400124261037643768376EB
:101D4000C3760377437700F001FF00B908BD00F0C8
:101D5000E5FAFBE7240900200064004008B50D48BF
:101D60000D4B03600323436000238360C3604FF483
:101D7000102202614FF400124261037643768376AB
:101D8000C3760377437700F0E1FE00B908BD00F0A9
:101D9000C5FAFBE74C0900200068004010B58AB086
:101DA00000230593069307930893099303683D4A1C
:101DB000934204D03C4A934234D00AB010BD3B4A0F
:101DC000136801331360012B1FD000240194384B9A
:101DD0001A6B42F008021A631B6B03F008030193AD
:101DE000019B03230593022206920893092309937A
:101DF00005A9304801F00AFB22460521142001F014
:101E00008FF8142001F0C4F8D7E700230093284B83
:101E10001A6C42F000721A641B6C03F0007300939A
:101E2000009BD2E700230293214B1A6C42F08062A0
:101E30001A641B6C03F080630293029B1B4A1368B5
:101E400001331360012B20D000240494184B1A6B2B
:101E500042F002021A631B6B03F002030493049B1B
:101E60006023059302230693032308930923099310
:101E700005A9114801F0CAFA22460521402001F0C7
:101E80004FF8402001F084F897E700230393084BB4
:101E90001A6C42F000721A641B6C03F00073039317
:101EA000039BD1E700640040006800402009002047
:101EB00000380240000C02400004024010B582B01D
:101EC000002400941A4B1A6B42F480021A631A6BB6
:101ED00002F480020092009A01941A6B42F40012FC
:101EE0001A631B6B03F400130193019B2246052127
:101EF0000C2001F015F80C2001F04AF822460521CB
:101F00003A2001F00DF83A2001F042F8224605216E
:101F10003B2001F005F83B2001F03AF8224605216C
:101F2000442000F0FDFF442001F032F802B010BD63
:101F30000038024008B507F0C7FD0A2003F032FC64
:101F4000FBE708B5012003F02DFCFBE708B50120F5
:101F500003F028FCFBE708B5012003F023FCFBE7B6
:101F600008B5012003F01EFCFBE70000034B0360F3
:101F7000034B0B6080231360704700BF8C0B002065
:101F80008C09002010B5AAB0364C0DF18C0CA64679
:101F9000BEE80F00ACE80F009EE807008CE80700E1
:101FA000002123A803F0C9FB2F4B18600DF1700C22
:101FB00004F11C0EBEE80F00ACE80F009EE807001D
:101FC0008CE8070000211CA803F0B7FB274B186022
:101FD0000DF1540C04F1380EBEE80F00ACE80F0010
:101FE0009EE807008CE80700002115A803F0A5FB78
:101FF0001F4B18600DF1380C04F1540EBEE80F00B1
:10200000ACE80F009EE807008CE8070000210EA84E
:1020100003F093FB174B18600DF11C0C04F1700ECC
:10202000BEE80F00ACE80F009EE807008CE8070050
:10203000002107A803F081FB0F4B1860EE4604F166
:102040008C0CBCE80F00AEE80F009CE807008EE89F
:1020500007000021684603F070FB084B18602AB0A7
:1020600010BD00BF54CA00087C0900208009002070
:1020700078090020840900208809002074090020C4
:102080002DE9F04F8DB000240794089409940A9428
:102090000B9400945F4B1A6B42F002021A631A6BA6
:1020A00002F002020092009A01941A6B42F0400280
:1020B0001A631A6B02F040020192019A02941A6BA1
:1020C00042F001021A631A6B02F001020292029AB4
:1020D00003941A6B42F008021A631A6B02F00802AA
:1020E0000392039A04941A6B42F004021A631A6B67
:1020F00002F004020492049A05941A6B42F08002E2
:102100001A631A6B02F080020592059A06941A6B04
:1021100042F020021A631B6B03F020030693069B18
:10212000DFF8FC8001224021404601F061FA3A4E7E
:1021300022464FF4E051304601F05AFADFF8E4B09D
:1021400001221021584601F053FADFF8DC900122F9
:102150001146484601F04CFA4023079301250895A3
:1021600009950A9507A9404601F050F94FF4E0534C
:1021700007930895099502270A9707A9304601F0A9
:1021800045F9092607964FF4041ACDF820A00995C1
:1021900007A9404601F03AF91023079308950995DD
:1021A0000A9707A9584601F031F930230793CDF873
:1021B00020A0099507A9194801F028F90795089565
:1021C00009950A9707A9484601F020F922460521FA
:1021D000062000F0A5FE062000F0DAFE22460521CA
:1021E000304600F09DFE304600F0D2FE224605212A
:1021F0000A2000F095FE0A2000F0CAFE22460521C2
:10220000172000F08DFE172000F0C2FE0DB0BDE8D3
:10221000F08F00BF00380240001C0240000802405E
:1022200000180240000002400004024008B50B48BC
:102230000B4B03600B4B436000238360C3604FF480
:102240008042026143618361C361036201F030FC3B
:1022500000B908BD00F062F8FBE700BFE00B00200A
:10226000005C0040801A06002DE9F04389B000238D
:10227000039304930593069307930268234B9A42B2
:1022800002D009B0BDE8F08300250095204C236BF7
:1022900043F004032363236B03F004030093009BC8
:1022A0000195236B43F001032363236B03F00103C8
:1022B0000193019B4FF4007303934FF01209CDF883
:1022C00010904FF00108CDF81480032706970426DC
:1022D000079603A90F4801F099F84FF48073039310
:1022E000CDF81090CDF814800697079603A90A48F8
:1022F00001F08CF80295236C43F400032364236CF3
:1023000003F400030293029BBBE700BF005C0040A4
:1023100000380240000802400000024072B6FEE7AA
:1023200000B595B03022002108A808F05DFD00231B
:10233000039304930593069307930193214A116C29
:1023400041F080511164126C02F080520192019AA6
:1023500002931D4B1A6842F480421A601B6803F412
:1023600080430293029B012308934FF48033099327
:1023700002230E934FF480020F920C2210924FF41E
:10238000A872119212930423139308A801F092FEED
:1023900098B90F23039302230493002305934FF46A
:1023A000A05306934FF480530793052103A802F02E
:1023B000CFF820B915B05DF804FBFFF7AFFFFFF7CA
:1023C000ADFF00BF003802400070004008B50F4864
:1023D0000F4B03604FF48273436000238360C3603C
:1023E00002220261012242614FF4007282613822AE
:1023F000C2610362436283620A23C36202F01CFA71
:1024000000B908BDFFF78AFFFBE700BFF40C00200E
:10241000003001402DE9F04389B000230393049379
:1024200005930693079302683F4B9A4202D009B086
:10243000BDE8F08304460025009503F584335A6C0B
:1024400042F480525A645A6C02F480520092009A0C
:1024500001951A6B42F002021A631A6B02F0020233
:102460000192019A02951A6B42F001021A631B6BEA
:1024700003F001030293029B182303934FF0020918
:10248000CDF810904FF00108CDF81480032706977F
:102490000526079603A9254800F0B8FF802303937B
:1024A000CDF81090CDF814800697079603A9204820
:1024B00000F0ACFF1F48204B03604FF0C063436047
:1024C0008560C5604FF48063036145618561C561C6
:1024D0004FF440330362456200F0E6FDE8B9154B66
:1024E000E3649C631548164B03604FF0C063436080
:1024F000402383600023C3604FF480620261436124
:102500008361C3614FF400320262436200F0CCFD8C
:1025100030B90A4BA3649C6389E7FFF7FFFEDEE74F
:10252000FFF7FCFEF5E700BF003001400004024069
:1025300000000240340C002040640240940C002053
:102540005864024000B583B0002200920D4B596CD4
:1025500041F480415964596C01F480410091009923
:102560000192196C41F0805119641B6C03F0805387
:102570000193019B0F216FF0010000F0D1FC03B02B
:102580005DF804FB00380240FEE7FEE7FEE7FEE7E9
:10259000FEE7704708B500F0C7FA04F07FF801289D
:1025A00000D108BD03F026FAFBE708B5012001F0D1
:1025B00025F808BD08B5082001F020F808BD08B5C9
:1025C000102001F01BF808BD08B5024800F030FEED
:1025D00008BD00BFF80D002008B5024800F069FBF7
:1025E00008BD00BF2409002008B5202001F006F82E
:1025F00008BD000008B5024802F054FF08BD00BF46
:10260000580E002008B507F0B7FA024800F010FE97
:1026100008BD00BF340C002008B5024800F008FED9
:1026200008BD00BF940C002008B5024800F041FB33
:1026300008BD00BF4C09002008B5024800F0F8FDB5
:1026400008BD00BF980D00200120704708B508F0B4
:10265000A1FB162303604FF0FF3008BD08B54FF013
:10266000FF31FFF7F3FFFEE710B503460C4A0D49B3
:102670000D48006840B10C4800680344521A934268
:1026800006D8094A136010BD0748084C0460F2E7F9
:1026900008F080FB0C2303604FF0FF30F3E700BF2E
:1026A00000000220002000004C0D0020204F0020E0
:1026B000034AD2F8883043F47003C2F88830704778
:1026C00000ED00E00268094B9A4200D0704782B0EA
:1026D00000230193064B5A6C42F400325A645B6C3F
:1026E00003F400330193019B02B0704700440140A2
:1026F0000038024000B587B0002301930293039392
:10270000049305930268104B9A4202D007B05DF81B
:1027100004FB002300930D4B1A6B42F020021A6356
:102720001B6B03F020030093009B402301930223C3
:1027300002930122039204930323059301A9044801
:1027400000F064FEE2E700BF0044014000380240B0
:102750000014024000B589B0002301930293039353
:1027600004930593069307931548164A0260436045
:10277000836041F28732C2600361836102F0D2FA62
:10278000A0B90F4802F0FAFA98B960230193002229
:1027900002920392059201A9094802F053FB58B92D
:1027A0000748FFF7A7FF09B05DF804FBFFF7B6FD88
:1027B000E7E7FFF7B3FDE8E7FFF7B0FDF0E700BF9D
:1027C000500D00200044014008B50A480A4B036040
:1027D0000A4B436000238360C36003610C224261A3
:1027E0008361C36102F0C6FC00B908BDFFF796FD26
:1027F000FBE700BF580E00200010014000941100BC
:1028000008B50B480B4B03600B4B43600023836000
:10281000C3604FF4806202610C2242618361C36134
:1028200002F0A8FC00B908BDFFF778FDFBE700BF88
:102830009C0E002000480040A086010008B50A4810
:102840000A4B03604FF4E133436000238360C360AD
:1028500003610C2242618361C36102F08BFC00B909
:1028600008BDFFF75BFDFBE7E00E00200014014010
:102870002DE9F0418CB00446002307930893099397
:102880000A930B930368674A934209D0664A9342BE
:1028900064D0664A934200F0A0800CB0BDE8F0819D
:1028A00000250095624B5A6C42F010025A645A6C33
:1028B00002F010020092009A01951A6B42F0020297
:1028C0001A631A6B02F002020192019A02951A6BC6
:1028D00042F001021A631B6B03F001030293029B97
:1028E000802307934FF00208CDF8208003270A9732
:1028F00007260B9607A94F4800F088FD4FF4007398
:102900000793CDF8208009950A970B9607A94A48A6
:1029100000F07CFD49484A4B03604FF00063436080
:102920008560C5604FF48063036145618561C56161
:102930004FF440330362456200F0B6FB58B93F4B99
:10294000A3639C6300220521252000F0E9FA2520DD
:1029500000F01EFBA1E7FFF7E1FCF0E7002503957F
:10296000334B1A6C42F480221A641A6C02F48022EF
:102970000392039A04951A6B42F004021A631B6BCC
:1029800003F004030493049B4FF440630793022372
:10299000089303230A9307230B9307A9294800F000
:1029A00035FD2948294B03604FF000634360856083
:1029B000C5604FF48063036145618561C5614FF473
:1029C00000330362456200F06FFB18B91E4BA3632E
:1029D0009C6362E7FFF7A2FCF8E700210591144B26
:1029E0005A6C42F020025A645A6C02F0200205929E
:1029F000059A06911A6B42F040021A631B6B03F0B2
:102A000040030693069B4FF48443079302230893E5
:102A100003230A9308230B9307A90D4800F0F6FC43
:102A20003BE700BF00100140004800400014014097
:102A3000003802400004024000000240980D0020CF
:102A40008864024000080240F80D0020286002401F
:102A500000180240DFF834D00D480E490E4A00231A
:102A600002E0D458C4500433C4188C42F9D30B4A42
:102A70000B4C002301E013600432A242FBD3FFF7AA
:102A800017FE08F08DF907F073FD70470000022073
:102A900000000020040900202CD5000804090020B3
:102AA0001C4F0020FEE7000010B504460E4B1878BE
:102AB0004FF47A73B3FBF0F30C4A1068B0FBF3F0F9
:102AC00000F074FA68B90F2C01D901200AE0002245
:102AD00021464FF0FF3000F023FA054B1C60002028
:102AE00000E0012010BD00BF1400002010000020F5
:102AF0001800002008B50B4B1A6842F400721A60E7
:102B00001A6842F480621A601A6842F480721A608D
:102B1000032000F0F3F90F20FFF7C6FFFFF712FDC7
:102B2000002008BD003C0240034A1168034B1B789B
:102B30000B441360704700BF240F002014000020D6
:102B4000014B1868704700BF240F0020002800F0D8
:102B5000A18038B5044690F82030D3B122681368BC
:102B600043F001031360FFF7EBFF054623685A6843
:102B700012F0010F10D1FFF7E3FF401B0A28F5D92F
:102B8000636A43F400336362052384F82030012034
:102B900038BDFFF703F9E1E71A6822F002021A6074
:102BA000FFF7CEFF054623685A6812F0020F0DD0DA
:102BB000FFF7C6FF401B0A28F5D9636A43F40033C8
:102BC0006362052384F820300120E1E7227E012A98
:102BD0003DD01A6822F080021A60637E012B3BD040
:102BE0002268136823F040031360A37E012B39D0C1
:102BF0002268136823F020031360E37E012B37D093
:102C00002268136843F010031360237F012B35D033
:102C10002268136823F008031360637F012B33D00D
:102C20002268136823F004031360A368E268134367
:102C300022691343626913436268013A21681343AE
:102C4000CB6100206062012384F82030A0E71A687D
:102C500042F080021A60C0E72268136843F0400324
:102C60001360C2E72268136843F020031360C4E7CF
:102C70002268136823F010031360C6E72268136804
:102C800043F008031360C8E72268136843F00403A5
:102C90001360CAE70120704770477047704770475C
:102CA000704770477047704770477047704770476C
:102CB00070472DE9F84F054603685C69D3F8048036
:102CC0009F68D3F80CB0D3F810A0D3F8189014F084
:102CD00001063BD017F0010616D001229A6017F0CA
:102CE000020F08D117F0040F0CD117F0080606D018
:102CF0004FF4805608E0FFF7CFFF002604E0FFF70F
:102D0000CEFF01E04FF4006617F4807F0DD02B68F2
:102D10004FF480729A6017F4007F40F0868017F4B9
:102D2000806F00F0868046F4005617F4803F0DD087
:102D30002B684FF480329A6017F4003F40F0838094
:102D400017F4802F00F0838046F4004614F0080F3B
:102D500007D01BF0100F04D046F400762B68102229
:102D6000DA6014F0040F02D01BF0080F79D114F0D0
:102D7000020F04D02B68DB6813F0030F78D114F036
:102D8000400F07D01AF0100F04D046F480662B686D
:102D900010221A6114F0200F02D01AF0080F6BD124
:102DA00014F0100F04D02B681B6913F0030F6AD1C5
:102DB00014F4003F02D018F0100F68D114F4803FD3
:102DC00002D018F0080F69D114F4004F7AD018F02F
:102DD000040F74D014F4807F04D019F0010F01D0D7
:102DE00046F0010614F4007F04D019F0020F01D060
:102DF00046F0020614F4806F04D019F0040F01D0DD
:102E000046F0040614F4006F59D019F0700956D03A
:102E1000B9F1400F65D058D8B9F1200F5ED0B9F1A3
:102E2000300F42D146F0200644E02846FFF735FF38
:102E30007BE717F4006F02D046F4804675E728461A
:102E4000FFF72EFF71E72846FFF728FF7EE717F40C
:102E5000002F02D046F4803678E72846FFF721FF9E
:102E600074E72B680822DA602846FFF71CFF7EE72C
:102E70002846FFF717FF82E72B6808221A612846C9
:102E8000FFF713FF8CE72846FFF70EFF90E72B684C
:102E900010225A602846FFF709FF8FE72B680822A7
:102EA0005A602846FFF703FF8EE7B9F1100F01D1F2
:102EB00046F008062A68936923F0700393612B6833
:102EC00004225A609EB9BDE8F88FB9F1500F0BD0BB
:102ED000B9F1600FEED146F48076EBE746F01006CC
:102EE000E8E746F04006E5E746F08006E2E76B6A71
:102EF0001E436E622846FFF7DBFEE4E7074AD3680D
:102F000023F4E0631B041B0C000200F4E0600343A5
:102F100043F0BF6343F40033D360704700ED00E03B
:102F200000B5194BDB68C3F30223C3F1070CBCF1F6
:102F3000040F28BF4FF0040C03F1040EBEF1060F7E
:102F400018D9033B4FF0FF3E0EFA0CFC21EA0C01AE
:102F500099400EFA03F322EA0303194300280BDB1E
:102F60000901C9B200F1604000F5614080F800132A
:102F70005DF804FB0023E5E700F00F000901C9B28A
:102F8000024B1954F4E700BF00ED00E014ED00E03F
:102F9000002807DB00F01F02400901239340024A8A
:102FA00042F82030704700BF00E100E00138B0F186
:102FB000807F0BD24FF0E0235861054AF02182F860
:102FC00023100020986107221A6170470120704782
:102FD00000ED00E010B40368D9B210390C4AA2FB2E
:102FE000014212090B4CA25CC2655F2909D923F486
:102FF0007F7323F0030304338365806D5DF8044B16
:10300000704723F47F7323F003038365F5E700BF64
:10301000ABAAAAAA68CB0008836A826992B9012B7D
:103020000AD0022B02D00BB100207047C36A13F004
:10303000807F28D100207047C36AB3F1C07F24D0BD
:1030400000207047B2F5005F09D0022B25D9032B71
:1030500025D1C36A13F0807F23D100207047032B52
:1030600003D8DFE803F01404140A00207047C36A91
:1030700013F0807F0DD100207047C36AB3F1C07F89
:1030800009D00020704701207047012070470120BF
:1030900070470120704701207047012070470020D1
:1030A000704701207047000070B50446FFF748FDE7
:1030B000002C5BD00546022384F83530002384F8C9
:1030C00034302268136823F00103136023681A6800
:1030D00012F0010F0AD0FFF733FD431B052BF5D982
:1030E00020236365032084F8350070BD1A682048EA
:1030F00010406168A2680A43E1680A4321690A43F3
:1031000061690A43A1690A43E1690A43216A0A43E2
:103110000243616A04291ED01A602668756925F089
:103120000705636A1D43042B07D1A36A1D43E36AA5
:103130001BB12046FFF770FF90B975612046FFF77D
:1031400049FFE26D3F2393408360002060650123C7
:1031500084F83530C9E7E16A206B01430A43DBE7B5
:1031600040236365012084F83500BEE70120BCE7F9
:103170003F8010F070B50446866DFFF7E1FC94F8CF
:103180003530DBB2022B06D080236365002384F840
:103190003430012070BD05462268136823F0160301
:1031A00013602268536923F080035361236CE3B1F9
:1031B0002268136823F0080313602268136823F061
:1031C0000103136023681B6813F0010F11D0FFF790
:1031D000B7FC431B052BF5D920236365032084F836
:1031E0003500002384F83430D4E7A36C002BDFD102
:1031F000E3E7E26D3F239340B360012384F8353069
:10320000002084F83400C5E790F83530DBB2022B9B
:1032100003D08023436501207047052380F83530B3
:103220000268136823F00103136000207047000058
:10323000F0B583B0044600230193724B1D68724BB6
:10324000A3FB0535AD0A876D3E68C26D0823934028
:10325000334210D003681A6812F0040F0BD01A68BA
:1032600022F004021A60C26D08239340BB60436DD4
:1032700043F001034365E26D01239340334209D0DB
:103280002268526912F0800F04D0BB60636D43F076
:1032900002036365E26D04239340334209D0226840
:1032A000126812F0020F04D0BB60636D43F0040398
:1032B0006365E26D10239340334224D02268126884
:1032C00012F0080F1FD0BB6023681A6812F4802F19
:1032D0000DD01B6813F4002F04D1236C9BB1204642
:1032E000984710E0A36C73B1204698470BE01A682A
:1032F00012F4807F03D11A6822F008021A60236C4E
:103300000BB120469847E26D20239340334255D0BD
:103310002268126812F0100F50D0BB6094F835305C
:10332000DBB2052B0ED023681A6812F4802F33D03D
:103330001B6813F4002F2AD1636C002B3ED020466B
:1033400098473BE02268136823F016031360226855
:10335000536923F080035361236CA3B1226813687F
:1033600023F008031360E26D3F239340BB60012309
:1033700084F83530002384F83430236D002B3FD09F
:10338000204698473CE0A36C002BE7D1EBE7E36BCA
:10339000A3B12046984711E01A6812F4807F09D142
:1033A0001A6822F010021A60012384F835300023D5
:1033B00084F83430E36B0BB120469847636DFBB162
:1033C000636D13F0010F17D0052384F835302268A0
:1033D000136823F001031360019B01330193AB4297
:1033E00004D823681B6813F0010FF5D1012384F87A
:1033F0003530002384F83430E36C0BB12046984715
:1034000003B0F0BD10000020B5814E1B00230F2B30
:1034100000F2E48070B582B060E085685E0003244D
:10342000B44025EA0405CC68B4402C438460456868
:1034300025EA02054C68C4F300129A402A43426010
:103440005AE0DC08083450F8246003F007029500C5
:103450000F22AA4026EA020E0A69AA4042EA0E0298
:1034600040F824205CE0072200E0002202FA0EF27D
:103470002A4302345A4D45F824205A4A94686FEA88
:103480000C0224EA0C054E6816F4801F01D04CEAA9
:103490000405544CA560E46802EA04054E6816F47D
:1034A000001F01D04CEA04054E4CE560646802EA56
:1034B00004054E6816F4003F01D04CEA0405494C5F
:1034C0006560246822404D6815F4803F01D04CEAC5
:1034D0000402444C226001330F2B7DD801229A4014
:1034E0000C6804EA020C32EA0404F4D14C6804F0DB
:1034F0000304013C012C90D94A6802F00302032A1C
:1035000009D0C4685D000322AA4024EA02048A6844
:10351000AA402243C2604A6802F00302022A90D005
:1035200004684FEA430E032202FA0EF224EA020470
:103530004A6802F0030202FA0EF2224302604A686D
:1035400012F4403FC7D000220192274A546C44F441
:1035500080445464526C02F480420192019A9C08A7
:10356000A51C1F4A52F8255003F003024FEA820EB1
:103570000F2202FA0EF225EA02051C4A90423FF49D
:1035800074AF02F5806290421AD002F580629042D8
:1035900018D002F58062904216D002F58062904207
:1035A00014D002F58062904212D002F580629042FF
:1035B00010D002F5806290423FF455AF082255E7E3
:1035C000012253E7022251E703224FE704224DE78D
:1035D00005224BE7062249E702B070BD704700BFE5
:1035E00000380140003C0140003802400000024029
:1035F0000AB18161704709048161704708B5054BC4
:103600005B69034200D108BD024B586106F060FAC5
:10361000F9E700BF003C014003685A6912F4806F6B
:1036200001D1002070476FF480625A610023036368
:10363000202280F83D2080F83E30026C42F00402E7
:10364000026480F83C30012070472DE9F0410746C4
:103650000D4690461E4624E0FFF772FA069BC01AFC
:10366000B04200D8EEB900233B63202287F83D200A
:1036700087F83E303A6C42F020023A6487F83C30DA
:1036800001201EE03B689C6925EA040C1FFA8CFCB3
:10369000BCFA8CFC4FEA5C1CE04511D1B6F1FF3F4F
:1036A000DAD1C5F30743012BECD13B685B6925EA0E
:1036B000030C1FFA8CFCBCFA8CFC4FEA5C1CEBE799
:1036C0000020BDE8F0812DE9F04105460E46174681
:1036D00098463DE01A6842F400721A602B686FF455
:1036E00080625A6100232B63202285F83D2085F8F3
:1036F0003E302A6C42F004022A6485F83C300120F6
:1037000034E0FFF71DFAA0EB0800B84200D8FFB97B
:1037100000232B63202285F83D2085F83E302A6C5B
:1037200042F020022A6485F83C3001201EE02B681C
:103730009C6926EA0404A4B2003C18BF0124A4B189
:103740002B685A6912F4806FC4D1B7F1FF3FD8D10A
:10375000C6F30743012BEAD12B685C6926EA04040F
:10376000A4B2003C18BF0124E9E70020BDE8F081C5
:1037700070B504460D46164623685B6913F0800F4A
:103780001CD12046FFF748FFD0B9B5F1FF3FF3D079
:10379000FFF7D6F9801BA84201D8002DECD10023F9
:1037A0002363202284F83D2084F83E30226C42F0CE
:1037B0002002226484F83C30012000E0002070BD2B
:1037C0000120FCE72DE9F04385B004460D46914603
:1037D0001F46DDF830800D9E0368196841F4807142
:1037E00019600096434600224FF00111FFF72DFFAC
:1037F00060B9236805F0FE051D613346424626493F
:103800002046FFF760FF68B1012008E023681B68CD
:1038100013F4807F02D04FF400732364032005B0BB
:10382000BDE8F0830023039323685A6903929B69E0
:103830000393039B324641462046FFF799FF30B978
:10384000012F0FD123685FFA89F61E61E7E7236C29
:10385000042B01D00120E2E72268136843F40073CF
:103860001360F7E723684FEA19221A61324641468E
:103870002046FFF77DFF20B923685FFA89F61E61B5
:10388000CDE7236C042B01D00120C8E72268136820
:1038900043F400731360F7E7020001002DE9F047DD
:1038A00084B004460D46164699460C9FDDF83480D8
:1038B0000268136843F4806313600368196841F475
:1038C00080711960CDF800803B4600224FF0011155
:1038D000FFF7BBFE70B95FFA85FA236805F0FE05B5
:1038E0001D6143463A4641492046FFF7ECFE68B168
:1038F000012008E023681B6813F4807F02D04FF496
:1039000000732364032004B0BDE8F0870023039311
:1039100023685A6903929B690393039B4246394685
:103920002046FFF725FF80B9B9F1010F18D12368B0
:10393000F6B21E61424639462046FFF719FF68B3CA
:10394000236C042B24D00120DDE7236C042B01D051
:103950000120D8E72268136843F400731360F7E787
:103960002368320A1A61424639462046FFF700FFB3
:1039700018B92368F6B21E61DCE7236C042B01D072
:103980000120C0E72268136843F400731360F7E76F
:103990002268136843F400731360D4E72268136845
:1039A00043F480731360CDF800803B4600224FF053
:1039B00001112046FFF749FE68B922684AF0010369
:1039C000136143463A4609492046FFF77CFE00282A
:1039D00099D0012097E723681B6813F4807F02D0F9
:1039E0004FF40073236403208DE700BF0200010041
:1039F00070B504460D46164623685B6913F0040F44
:103A00001CD12046FFF708FED0B9B5F1FF3FF3D037
:103A1000FFF796F8801BA84201D8002DECD10023B7
:103A20002363202284F83D2084F83E30226C42F04B
:103A30002002226484F83C30012000E0002070BDA8
:103A40000120FCE770B505460C4616462B685969FF
:103A500011F0400F29D1596911F0100F15D1FFF75E
:103A60006FF8801BA04201D8002CEFD100232B63FC
:103A7000202285F83D2085F83E302A6C42F0200255
:103A80002A6485F83C30012070BD6FF010025A6145
:103A900000232B63202285F83D2085F83E302A6CD8
:103AA0002A6485F83C300120EEE70020ECE70000B6
:103AB000002800F0CC8070B5044690F83D30002B13
:103AC00077D0242384F83D302268136823F0010363
:103AD00013602268136843F400431360226813687C
:103AE00023F40043136000F0E9FD62685A4B9A42E8
:103AF00064D85A4B98428CBF00230123002B40F01E
:103B0000A8805749A1FB00318B0C25686A6822F018
:103B10003F0242EA91426A6021680A6A22F03F024B
:103B200066684D4DAE424FD8013313430B62216896
:103B3000CA6922F44F4222F0FF026668464B9E4259
:103B40004CD8431E7600B3FBF6F3013340F6FC700D
:103B5000034278D0C3F30B031343CB6121680B6896
:103B600023F0C003E269206A024313430B6021681B
:103B70008B6823F4034323F0FF032269E0680243C8
:103B800013438B602168CB6823F0FF036269A0694F
:103B900002431343CB602268136843F001031360B0
:103BA00000202064202384F83D30206384F83E0008
:103BB00070BD80F83C30FEF757FB82E7294B9842F6
:103BC0008CBF0023012399E74FF4967505FB03F39F
:103BD000254DA5FB03539B090133A6E7A368BBB999
:103BE000451E06EB460CB5FBFCF50135C5F30B0590
:103BF000B5FA85F56D0945BBC3B9013806EB460337
:103C0000B0FBF3F30133C3F30B0343F40043A3E727
:103C1000451E06EB860C0CEB8C0CB5FBFCF5013558
:103C2000C5F30B05B5FA85F56D09E4E7013806EB38
:103C3000860303EB8303B0FBF3F30133C3F30B03FE
:103C400043F4404388E7042386E7012384E7012007
:103C500070470120ACE700BFA08601007F841E00F2
:103C600083DE1B43FF083D00D34D62102DE9F04376
:103C700083B004460F46904699460C9EFEF760FFBF
:103C8000054694F83D00C0B2202803D0022003B0BE
:103C9000BDE8F0830095192301224B492046FFF728
:103CA000D4FC002840F0898094F83C30012B00F0CF
:103CB0008680012384F83C3023681A6812F0010FD3
:103CC00003D11A6842F001021A602268136823F4D3
:103CD00000631360212384F83D30402384F83E3094
:103CE000002323640A9B6362BDF82C306385638DD7
:103CF0002385364BE362019500964B464246394692
:103D00002046FFF75FFD00285BD1238D002B35D0C7
:103D10002A4631462046FFF72BFD20BB626A236806
:103D200012781A61626A531C6362218D013989B26B
:103D30002185638D9BB2013B9BB2638523685869E3
:103D400010F0040FE1D00029DFD052781A61636AC5
:103D500001336362238D013B2385638D9BB2013B5D
:103D60009BB26385D1E7236C042B01D001208EE741
:103D70002268136843F400731360F7E72A4631465C
:103D80002046FFF735FE50B1236C042B01D00120F3
:103D90007DE72268136843F400731360F7E7226835
:103DA000136843F400731360202384F83D3000232C
:103DB00084F83E3084F83C3069E7022067E702204F
:103DC00065E7012063E700BF020010000000FFFF6D
:103DD0002DE9F04387B004460F4690469946109E61
:103DE000FEF7AEFE054694F83D00C0B2202804D090
:103DF0000227384607B0BDE8F08300951923012259
:103E000088492046FFF721FC002840F0438194F8C0
:103E10003C30012B00F04081012384F83C302368C2
:103E20001A6812F0010F03D11A6842F001021A60F9
:103E30002268136823F400631360222384F83D3062
:103E4000402384F83E30002323640E9B6362BDF858
:103E50003C306385638D2385734BE3620195009647
:103E60004B46424639462046FFF718FD07460028D4
:103E700040F01481238D5BB9029323685A69029242
:103E80009A690292029A1A6842F400721A6075E006
:103E9000012B0AD0022B1AD00023059323685A69FC
:103EA00005929B690593059B68E02268136823F4DB
:103EB000806313600023039323685A6903929A690D
:103EC0000392039A1A6842F400721A6056E022685C
:103ED000136823F4806313602268136843F400635B
:103EE00013600023049323685A6904929B69049326
:103EF000049B43E02A4631462046FFF7A3FD0028F5
:103F000040F0CE8023681A69636A1A70636A0133CD
:103F10006362238D013B2385638D9BB2013B9BB282
:103F200063852BE000953346002240492046FFF789
:103F30008CFB002840F0B6802268136843F40073BD
:103F4000136023681A69636A1A70626A531C636299
:103F5000238D013B2385638D9BB2013B9BB263851F
:103F600023681B695370636A01336362238D013BCD
:103F70002385638D9BB2013B9BB26385238D002B10
:103F80007FD0032B54D8012BB4D0022BCAD000957C
:103F90003346002225492046FFF757FB002840F012
:103FA00083802268136823F48063136023681A698E
:103FB000636A1A70636A01336362238D013B238550
:103FC000638D9BB2013B9BB2638500953346002213
:103FD00016492046FFF739FB002867D1226813688D
:103FE00043F40073136023681A69636A1A70626A83
:103FF000531C6362238D013B2385638D9BB2013B80
:104000009BB2638523681B695370636A01336362E3
:10401000238D013B2385638D9BB2013B9BB263855E
:10402000ACE700BF020010000000FFFF0400010029
:104030002A4631462046FFF705FD002838D123687F
:104040001A69636A1A70626A531C6362238D013BAA
:104050002385638D9BB2013B9BB2638523685969BD
:1040600011F0040F8AD01B695370636A01336362D5
:10407000238D013B2385638D9BB2013B9BB26385FE
:104080007CE7202384F83D30002384F83E3084F818
:104090003C30AEE60227ACE60227AAE60127A8E6F6
:1040A0000127A6E60127A4E60127A2E60127A0E64C
:1040B00001279EE6002800F0E08170B582B004463A
:1040C000036813F0010F3BD09F4B9B6803F00C0378
:1040D000042B2CD09C4B9B6803F00C03082B21D0A5
:1040E0006368B3F5803F4FD0B3F5A02F52D0964B05
:1040F0001A6822F480321A601A6822F480221A6048
:104100006368002B50D0FEF71BFD05468E4B1B68E5
:1041100013F4003F14D1FEF713FD401B6428F5D9BA
:104120000320B1E1884B5B6813F4800FD8D0864B35
:104130001B6813F4003F03D06368002B00F09F81DD
:10414000236813F0020F54D07F4B9B6813F00C0FC1
:104150003ED07D4B9B6803F00C03082B33D0E36803
:10416000002B68D0794B01221A60FEF7E9FC054666
:10417000754B1B6813F0020F54D1FEF7E1FC401B96
:104180000228F5D903207FE16F4A136843F4803396
:104190001360B5E76C4B1A6842F480221A601A6803
:1041A00042F480321A60ABE7FEF7CAFC0546664B64
:1041B0001B6813F4003FC3D0FEF7C2FC401B642809
:1041C000F5D9032060E1604B5B6813F4800FC6D122
:1041D0005D4B1B6813F0020F03D0E368012B40F026
:1041E0005081594A136823F0F803216943EAC10357
:1041F0001360236813F0080F42D063696BB3534B0D
:104200000122C3F8802EFEF79BFC05464E4B5B6FE8
:1042100013F0020F34D1FEF793FC401B0228F5D9AE
:10422000032031E1484A136823F0F803216943EA87
:10423000C1031360DDE7454B00221A60FEF780FCE6
:104240000546414B1B6813F0020FD2D0FEF778FCF5
:10425000401B0228F5D9032016E13C4B0022C3F88D
:10426000802EFEF76DFC0546374B5B6F13F0020F97
:1042700006D0FEF765FC401B0228F5D9032003E1B8
:10428000236813F0040F77D02F4B1B6C13F0805F63
:1042900033D1002301932C4B1A6C42F080521A64E4
:1042A0001B6C03F080530193019B0125284B1B6875
:1042B00013F4807F23D0A368012B34D0052B38D092
:1042C000214B1A6F22F001021A671A6F22F00402C2
:1042D0001A67A368002B3DD0FEF732FC06461A4B46
:1042E0001B6F13F0020F46D1FEF72AFC801B41F230
:1042F00088339842F3D90320C6E00025D6E7144A54
:10430000136843F480731360FEF71AFC0646104BE3
:104310001B6813F4807FCED1FEF712FC801B0228AD
:10432000F5D90320B0E0084A136F43F00103136787
:10433000CFE7054B1A6F42F004021A671A6F42F07A
:1043400001021A67C5E700BF00380240000047427B
:1043500000700040FEF7F4FB0646524B1B6F13F053
:10436000020F08D0FEF7ECFB801B41F28833984225
:10437000F3D9032088E0EDB9A369002B00F0838016
:10438000484A926802F00C02082A51D0022B17D03A
:10439000454B00221A66FEF7D3FB0446414B1B68CF
:1043A00013F0007F42D0FEF7CBFB001B0228F5D9AB
:1043B000032069E03B4A136C23F080531364DBE76E
:1043C000394B00221A66FEF7BBFB0546354B1B68CE
:1043D00013F0007F06D0FEF7B3FB401B0228F5D98F
:1043E000032051E0E369226A1343626A43EA8213BD
:1043F000A26A5208013A43EA0243E26A43EA0263CC
:10440000284A5360284B01221A66FEF799FB04469E
:10441000244B1B6813F0007F06D1FEF791FB001BB5
:104420000228F5D903202FE000202DE000202BE00A
:10443000012B2BD01B4B5B6803F48001E269914296
:1044400026D103F03F02216A8A4223D1616A47F6EE
:10445000C0721A40B2EB811F1ED103F44031A26A30
:104460005208013AB1EB024F18D103F07063E26ACF
:10447000B3EB026F14D1002006E001207047012049
:1044800002E0012000E0002002B070BD0120FBE747
:104490000120F9E70120F7E70120F5E70120F3E724
:1044A0000120F1E7003802400000474208B5254BE3
:1044B0009B6803F00C03042B3FD0082B3FD1214B0A
:1044C0005A6802F03F025B6813F4800F12D01D4B54
:1044D0005968C1F388111C480023A1FB0001FCF7B7
:1044E000C5F9184B5B68C3F3014301335B00B0FBB4
:1044F000F3F025E0134B5968C1F3881C4FEA4C11C7
:10450000B1EB0C006EEB0E0E4FEA8E1343EA906394
:104510008101091A63EB0E03DB0043EA5173C90002
:1045200011EB0C0C43F10003990200234FEA8C209D
:1045300041EA9C51FCF79AF9D3E7034800E00348AD
:1045400008BD00BF00380240001BB7000024F40083
:10455000002800F09B8070B50D4604464F4B1B6849
:1045600003F007038B4208D2CBB24C4A1370136896
:1045700003F007038B4240F08B80236813F0020F97
:1045800017D013F0040F04D0454A936843F4E05366
:104590009360236813F0080F04D0414A936843F4F2
:1045A000604393603E4A936823F0F003A1680B4395
:1045B0009360236813F0010F32D06368012B21D080
:1045C0009A1E012A25D9364A126812F0020F61D0CC
:1045D00033498A6822F0030213438B60FEF7B0FA76
:1045E00006462F4B9B6803F00C036268B3EB820F07
:1045F00016D0FEF7A5FA801B41F288339842F0D915
:10460000032042E0264A126812F4003FE0D1012064
:104610003BE0234A126812F0007FD9D1012034E038
:104620001E4B1B6803F00703AB4207D9EAB21B4BD2
:104630001A701B6803F00703AB422DD1236813F0F7
:10464000040F06D0164A936823F4E053E1680B4345
:104650009360236813F0080F07D0114A936823F47E
:104660006043216943EAC1039360FFF71FFF0C4BCE
:104670009B68C3F303130B4AD35CD8400A4B186002
:104680000A4B1868FEF710FA002070BD0120704731
:104690000120FAE70120F8E70120F6E7003C02409C
:1046A0000038024050CB0008100000201800002005
:1046B000014B1868704700BF1000002008B5FFF7D5
:1046C000F7FF044B9B68C3F38223034AD35CD840B3
:1046D00008BD00BF0038024060CB000808B5FFF7F6
:1046E000E7FF044B9B68C3F34233034AD35CD840D3
:1046F00008BD00BF0038024060CB00082DE9F0473C
:1047000082B00546884617461E46FEF719FA0A9BF0
:104710001B1A03EB0609FEF713FA82462B4B1B68A4
:10472000C3F3CB3309FB03F301932B689C6838EA8E
:1047300004030CBF4FF0010C4FF0000CBC4540D0FF
:10474000B6F1FF3FF1D0FEF7FBF9A0EB0A004845B8
:104750000AD2B9F1000F07D0019A02B14A46019B73
:10476000013B01939146E0E72A68536823F0E00398
:1047700053606B68B3F5827F0BD0AB6AB3F5005F13
:1047800014D0012385F85130002385F850300320E0
:1047900018E0AB68B3F5004F02D0B3F5806FECD1F1
:1047A0002A68136823F040031360E6E72A68136859
:1047B00023F4005313602A68136843F40053136012
:1047C000DFE7002002B0BDE8F08700BF1000002046
:1047D00010B584B00446164B1868164BA3FB003086
:1047E000400D4FF47A7303FB00F003906368B3F558
:1047F000827F0BD0039BBBB1039B013B03932368D8
:104800009B6813F0800FF5D100200EE000920B465C
:10481000002280212046FFF771FF30B1636D43F025
:1048200020036365032000E0002004B010BD00BF3A
:1048300010000020819F5E1600285AD010B5044653
:10484000436A33B94368B3F5827F05D00023C3615F
:1048500002E00023036143610023A36294F8513016
:10486000002B40D0022384F851302268136823F0D3
:1048700040031360636803F48273A26802F4044285
:104880001343E26802F400621343226902F0020259
:104890001343626902F001021343A26902F4007239
:1048A0001343E26902F038021343226A02F08002E5
:1048B0001343A26A02F40052216813430B60638B16
:1048C00003F00403626A02F01002216813434B6094
:1048D0002268D36923F40063D3610020606501235B
:1048E00084F8513010BD84F850302046FDF792FD19
:1048F000B8E7012070472DE9F04383B01F460A9DB9
:1049000090F85030012B00F0108104468846914603
:10491000012380F85030FEF713F9064694F8513021
:10492000DBB26268012B0AD0B2F5827F40F0E380EF
:10493000A268002A40F0E980042B40F0E880B8F13A
:10494000000F00F0E680B9F1000F00F0E480002FC6
:1049500000F0E38094F85130DBB2042B02D0052341
:1049600084F8513000236365C4F83890E787A7873F
:10497000C4F83080E786A7862364636423681A68D6
:1049800012F0400F03D11A6842F040021A60E36847
:10499000B3F5006F11D063680BB1012F0BD1226BFF
:1049A000236812781A73236B01332363E38E9BB25F
:1049B000013B9BB2E38601276BE063680BB1012FDB
:1049C0000BD1226B23681288DA60236B02332363D6
:1049D000E38E9BB2013B9BB2E38601271CE0236878
:1049E0009A6812F0010F0ED0E28F92B25AB1DA68D3
:1049F000A36B1A80A36B0233A363E38F9BB2013BCB
:104A00009BB2E3870127FEF79BF8801BA84203D3E4
:104A1000B5F1FF3F40F08380E38E9BB21BB9E38F7B
:104A20009BB2002B53D023689A6812F0020FD6D0A5
:104A3000E28E92B2002AD2D0002FD0D0226B128800
:104A4000DA60236B02332363E38E9BB2013B9BB29C
:104A5000E3860027C3E723689A6812F0010F0ED09F
:104A6000E28F92B25AB1DA68A36B1A70A36B01336A
:104A7000A363E38F9BB2013B9BB2E3870127FEF761
:104A80005FF8831BAB4202D3B5F1FF3F49D1002D44
:104A900049D0E38E9BB213B9E38F9BB2BBB12368BD
:104AA0009A6812F0020FD6D0E28E92B2002AD2D0CB
:104AB000002FD0D0226B12781A73236B013323633B
:104AC000E38E9BB2013B9BB2E3860027C3E73246ED
:104AD00029462046FFF77CFE48B9A36863B90193D5
:104AE0002368DA6801929B680193019B04E020230C
:104AF0006365012000E00220012384F85130002387
:104B000084F8503003B0BDE8F0830220F4E70220BF
:104B1000F2E70120F0E70120EEE70120ECE70320B7
:104B2000EAE70320E8E70320E6E70220EAE70000DF
:104B300030B4036A23F001030362036A42688469A4
:104B400024F073040D682C4323F0020C8B6843EAB5
:104B50000C03104DA84203D005F58065A84205D18D
:104B600023F00803CD682B4323F00403094DA8422A
:104B700003D005F58065A84205D122F440724D6945
:104B80002A438D692A43426084614A684263036212
:104B900030BC70470000014030B4036A23F48073D6
:104BA0000362036A4268C46924F0730C0C6844EA27
:104BB0000C0523F400738C6843EA0423114CA042D3
:104BC00003D004F58064A04206D123F40063CC68CE
:104BD00043EA042323F480630A4CA04203D004F583
:104BE0008064A04207D122F440524C6942EA041288
:104BF0008C6942EA04124260C5614A68C26303627A
:104C000030BC70470000014030B4036A23F4805385
:104C10000362036A4468C26922F4E6420D6842EA0C
:104C2000052223F400538D6843EA0533094DA84259
:104C300003D005F58065A84204D124F480444D6971
:104C400044EA85144460C2614A680264036230BC6D
:104C5000704700BF00000140704700000368304A01
:104C6000904212D0B0F1804F0FD0A2F57C4290421A
:104C70000BD002F58062904207D002F5806290422C
:104C800003D002F57842904203D123F070034A68C2
:104C90001343234A90422AD0B0F1804F27D0A2F587
:104CA0007C42904223D002F5806290421FD002F5F0
:104CB000806290421BD002F57842904217D002F5F4
:104CC0007052904213D002F5806290420FD002F5EC
:104CD000806290420BD0A2F59832904207D002F544
:104CE0008062904203D002F58062904203D123F4A7
:104CF0004073CA68134323F080034A691343036077
:104D00008B68C3620B688362054B984203D003F53E
:104D10008063984201D10B690363012343617047AB
:104D20000000014040B310B5044690F83D30F3B1A7
:104D3000022384F83D30214651F8040BFFF78EFF23
:104D4000012384F8463084F83E3084F83F3084F8FC
:104D5000403084F8413084F8423084F8433084F89D
:104D6000443084F8453084F83D30002010BD80F890
:104D70003C30FDF7A7FCDBE70120704740B310B5DE
:104D8000044690F83D30F3B1022384F83D302146CB
:104D900051F8040BFFF762FF012384F8463084F8D2
:104DA0003E3084F83F3084F8403084F8413084F855
:104DB000423084F8433084F8443084F8453084F835
:104DC0003D30002010BD80F83C30FFF745FFDBE7A9
:104DD0000120704730B4036A23F010030362036AB2
:104DE0004468826922F4E6420D6842EA052223F013
:104DF00020038D6843EA0513114DA84203D005F541
:104E00008065A84206D123F08003CD6843EA0513EC
:104E100023F040030A4DA84203D005F58065A8425F
:104E200007D124F440644D6944EA85048D6944EA5D
:104E30008504446082614A688263036230BC7047C3
:104E40000000014038B590F83C30012B66D0044694
:104E50000D46012380F83C300C2A5AD8DFE802F0D6
:104E6000075959591B595959305959594400006823
:104E7000FFF75EFE2268936943F00803936122689E
:104E8000936923F0040393612268936929690B43B2
:104E9000936100203EE00068FFF79CFF2268936961
:104EA00043F4006393612268936923F48063936100
:104EB00022689369296943EA01239361002029E06C
:104EC0000068FFF769FE2268D36943F00803D361E5
:104ED0002268D36923F00403D3612268D369296966
:104EE0000B43D361002015E00068FFF78DFE2268B8
:104EF000D36943F40063D3612268D36923F48063E8
:104F0000D3612268D369296943EA0123D361002070
:104F100000E00120002384F83C3038BD0220FCE78B
:104F2000026802F10C0353E8003F23F490730C3243
:104F300042E800310029F3D1026802F1140353E87A
:104F4000003F23F00103143242E800310029F3D17D
:104F5000036B012B05D0202380F83E300023036330
:104F60007047026802F10C0353E8003F23F010037E
:104F70000C3242E800310029F3D1ECE790F83D30E3
:104F8000DBB2212B01D0022070478368B3F5805F2C
:104F900017D0036A5A1C02621A7803685A60C38CDD
:104FA0009BB2013B9BB2C3844BB90268D36823F028
:104FB0008003D3600268D36843F04003D3600020CD
:104FC00070470369002BE4D1036A1B880268C3F3AE
:104FD00008035360036A02330362E0E738B504460E
:104FE0000268136923F44053C1680B43136183685B
:104FF0000269134342691343C2691A430168CB68CB
:1050000023F4164323F00C031343CB600268536967
:1050100023F4407381690B4353610368314A93421F
:1050200006D002F58062934202D0FFF747FB01E011
:10503000FFF754FBE369B3F5004F29D000210318B3
:1050400049411B1841F10001C90041EA5371DB00DD
:10505000181863684FEA83024FEA937341F1000125
:10506000FBF704FC204DA5FB00325109642303FB30
:1050700011031B013233A5FB03235B0903F0F0028C
:1050800002EB011203F00F03216813448B6038BD5B
:105090000023021843EB0301121841F10001C9007B
:1050A00041EA5271D200101841F100016268921871
:1050B0005B41FBF7DBFB0C4DA5FB00325109642380
:1050C00003FB1103DB003233A5FB03235B095A000A
:1050D00002F4F87202EB011203F007032168134493
:1050E0008B60D4E7001001401F85EB512DE9F84398
:1050F00005460F4616469946DDF820802C68246840
:1051000037EA04030CBF4FF0010C4FF0000CB4451C
:105110002DD1B8F1FF3FF1D0B8F1000F05D0FDF768
:105120000FFDA0EB09004045E8D92A6802F10C0305
:1051300053E8003F23F4D0730C3242E800310029D9
:10514000F3D12A6802F1140353E8003F23F001036E
:10515000143242E800310029F3D1202385F83D3094
:1051600085F83E30002385F83C30032000E0002025
:10517000BDE8F88358B310B5044690F83D300BB342
:10518000242384F83D302268D36823F40053D3608D
:105190002046FFF723FF2268136923F4904313612D
:1051A0002268536923F02A0353612268D36843F4C9
:1051B0000053D36000202064202384F83D3084F81D
:1051C0003E3010BD80F83C30FDF752FBD8E701209F
:1051D00070472DE9F04182B01E4690F83D30DBB2B9
:1051E000202B54D104460D469046002953D0002A66
:1051F00053D090F83C30012B51D0012380F83C3043
:1052000000230364212380F83D30FDF799FC074615
:10521000A4F82480A4F82680A368B3F5805F05D0A5
:105220004FF00008002384F83C3012E0236913B1EA
:105230004FF00008F6E7A8460025F3E738F8023BF0
:105240002268C3F308035360E28C92B2013A92B22F
:10525000E284E38C9BB273B100963B46002280212E
:105260002046FFF743FFE0B9002DE7D015F8012BEA
:1052700023685A60E8E700963B460022402120461A
:10528000FFF734FF78B9202384F83D3000E0022096
:1052900002B0BDE8F0810120FAE70120F8E7022022
:1052A000F6E70320F4E70320F2E72DE9F04182B0AE
:1052B0001E4690F83E30DBB2202B5CD104460D46F2
:1052C000904600295BD0002A5BD090F83C30012B3F
:1052D00059D0012380F83C3000230364222280F857
:1052E0003E200363FDF72CFC0746A4F82C80A4F8AD
:1052F0002E80A368B3F5805F05D04FF0000800232F
:1053000084F83C3017E0236913B14FF00008F6E74A
:10531000A8460025F3E723685B68C3F3080328F871
:10532000023B03E023685B682B700135E28D92B28B
:10533000013A92B2E285E38D9BB2BBB100963B4647
:10534000002220212046FFF7D1FEF0B9002DE2D047
:10535000A368B3F5805FE5D013B92369002BE1D0D2
:1053600023685B6803F07F032B70DEE7202384F85B
:105370003E30002000E0022002B0BDE8F0810120B4
:10538000FAE70120F8E70220F6E70320F4E7704788
:1053900008B50168CA6822F04002CA60202280F87D
:1053A0003D20FFF7F4FF002008BD7047704708B5A7
:1053B000806B0023C385C384FFF7F8FF08BD7047E7
:1053C00090F83E30DBB2222B67D18368B3F5805F63
:1053D0004DD0826AB3F5805F04D0002B54D10369AD
:1053E000002B51D103685B681370836A01338362B9
:1053F000C38D9BB2013B9BB2C385002B4FD100B53F
:1054000083B00268D36823F02003D3600268D368B6
:1054100023F48073D3600268536923F0010353615E
:10542000202380F83E30036B012B33D1002303632C
:10543000026802F10C0353E8003F23F010030C3222
:1054400042E800310029F3D103681A6812F0100F06
:1054500006D0002201921A6801925B680193019BB9
:10546000818DFFF7ACFF002003B05DF804FB0269FB
:10547000002AAED1826A03685B68C3F30803138015
:10548000836A02338362B3E703685B6803F07F03D8
:105490001370AAE7FFF789FFE5E7022070470020B5
:1054A0007047000030B583B0044602681368D068C6
:1054B000516913F00F0505D113F0200F02D010F041
:1054C000200F19D12DB111F0010119D110F4907FE5
:1054D00016D1216B01297DD013F0800F03D010F07D
:1054E000800F40F0158113F0400F03D010F0400FF3
:1054F00040F0128103B030BD2046FFF761FFF9E7AD
:1055000013F0010F06D010F4807F03D0226C42F01C
:105510000102226413F0040F04D019B1226C42F08E
:105520000202226413F0020F04D019B1226C42F07F
:105530000402226413F0080F07D010F0200F00D1EE
:1055400019B1226C42F008022264226C002AD1D0E8
:1055500013F0200F02D010F0200F29D123685B69CF
:1055600003F04003226C12F0080F00D163B3204611
:10557000FFF7D6FC23685B6913F0400F20D0226848
:1055800002F1140353E8003F23F04003143242E8D1
:1055900000310029F3D1A36B73B1614A1A65A06B86
:1055A000FDF732FE0028A5D0A06B036D9847A1E758
:1055B0002046FFF705FFD1E72046FFF7F7FE99E702
:1055C0002046FFF7F3FE95E72046FFF7EFFE0023A6
:1055D00023648FE713F0100F3FF47EAF10F0100F2D
:1055E0003FF47AAF0023019313680193536801934A
:1055F000019B536913F0400F50D0A26B13685B6896
:105600009BB2002B3FF476AFA18D99427FF672AF2B
:10561000E385D369B3F5807F37D0226802F10C03AC
:1056200053E8003F23F480730C3242E80031002934
:10563000F3D1226802F1140353E8003F23F0010381
:10564000143242E800310029F3D1226802F1140338
:1056500053E8003F23F04003143242E800310029B0
:10566000F3D1202384F83E3000232363226802F123
:105670000C0353E8003F23F010030C3242E80031E2
:105680000029F3D1A06BFDF775FDA18DE38D9BB2D1
:10569000C91A89B22046FFF792FE2BE7A18DE38D50
:1056A0009BB2C91A89B2E38D9BB2002B3FF422AFA3
:1056B00000293FF41FAF226802F10C0353E8003FBA
:1056C00023F490730C3242E800300028F3D12268B2
:1056D00002F1140353E8003F23F00103143242E8BF
:1056E00000300028F3D1202384F83E3000232363C8
:1056F000226802F10C0353E8003F23F010030C3240
:1057000042E800300028F3D12046FFF758FEF1E6CA
:105710002046FFF733FCEDE62046FFF739FEE9E6C9
:10572000AF530008842801D0033070470020704731
:1057300008B500F097FD002008BD2DE9F04387B0C3
:1057400004460F464569BDB18669AEB1D0F8048004
:10575000D0F80090B0F90800FFF7E4FF0296019539
:1057600000903B4622694946404600F00BFD0590FB
:10577000059807B0BDE8F08365682668D4F8108006
:10578000B4F90800FFF7CEFF05AB019300903B464C
:105790001FFA88F23146284600F02FFD0128E7D095
:1057A0000020E6E708B500B9012000F0B9FE0020AE
:1057B00008BD00F1080343604FF0FF328260C36010
:1057C000036100230360704700230361704743684F
:1057D0004B609A688A605160996008610368013380
:1057E0000360704730B40D68B5F1FF3F11D000F190
:1057F00008031C465B681A68AA42FAD963684B60C2
:1058000099608C606160086103680133036030BC9B
:1058100070470469F2E70369416882688A604168F9
:1058200051605A68824206D0002202611A68013A29
:105830001A601868704782685A60F5E782B00023E2
:1058400001930D4B1B68B3F1FF3F08D04FF050039D
:1058500083F31188BFF36F8FBFF34F8FFEE74FF0D5
:10586000500383F31188BFF36F8FBFF34F8F019BFA
:10587000002BFCD002B070471C00002008480068D4
:10588000006880F308884FF0000080F3148862B647
:1058900061B6BFF34F8FBFF36F8F00DF00BF000013
:1058A00008ED00E0DFF80C00016841F470010160D0
:1058B0007047000088ED00E04FF0807340F8043C32
:1058C00021F0010140F8081C054B40F80C3C40F861
:1058D000202C6FF0020340F8243C4438704700BF8E
:1058E0003D5800080000000000000000000000001B
:1058F000074B19680868B0E8F04F80F30988BFF3D8
:105900006F8F4FF0000080F311887047AFF3008075
:10591000504B00204FF0500383F31188BFF36F8F7B
:10592000BFF34F8F0B4A136801331360012B00D074
:1059300070474FF0E023D3F8043D13F0FF0FF7D08A
:105940004FF0500383F31188BFF36F8FBFF34F8F76
:10595000FEE700BF1C000020094B1B6843B94FF055
:10596000500383F31188BFF36F8FBFF34F8FFEE7B0
:10597000013B034A13600BB983F31188704700BFE2
:105980001C000020000000000000000000000000DB
:10599000EFF30980BFF36F8F154B1A681EF0100FDD
:1059A00008BF20ED108A20E9F04F10602DE90900B2
:1059B0004FF0500080F31188BFF34F8FBFF36F8F0C
:1059C00000F020FE4FF0000080F3118809BC196838
:1059D0000868B0E8F04F1EF0100F08BFB0EC108A56
:1059E00080F30988BFF36F8F704700BFAFF300806B
:1059F000504B002008B54FF0500383F31188BFF3DC
:105A00006F8FBFF34F8F00F083FC28B14FF0E0237E
:105A10004FF08052C3F8042D002383F3118808BD92
:105A20004FF0E022002313619361054B1B68054989
:105A3000A1FB03139B09013B5361072313617047CB
:105A400010000020D34D62104FF0E023D3F8002D5A
:105A50003D4B9A421CD04FF0E023D3F8002D3B4B36
:105A60009A421ED030B583B0394B1A78D2B2019227
:105A7000FF221A701B78DBB28DF803309DF80330DB
:105A800003F05003334A1370334B07221A601BE0B4
:105A90004FF0500383F31188BFF36F8FBFF34F8F25
:105AA000FEE74FF0500383F31188BFF36F8FBFF30E
:105AB0004F8FFEE7284A1368013B13609DF80330BF
:105AC0005B00DBB28DF803309DF8033013F0800FDC
:105AD000F0D1214B1B68032B08D04FF0500383F308
:105AE0001188BFF36F8FBFF34F8FFEE71B021A4A77
:105AF000136003F4E0631360019BDBB2144A13707C
:105B00004FF0E024D4F8203D43F47003C4F8203D66
