:020000040800F2
:1000000000000220191C0008A1180008A31800080D
:10001000A5180008A7180008A9180008000000008B
:10002000000000000000000000000000F141000896
:10003000AB1800080000000091420008AD1800084D
:10004000691C0008691C0008691C0008691C00087C
:10005000691C0008691C0008C3180008691C000816
:10006000691C0008CD180008D7180008691C000892
:10007000E1180008691C0008691C0008691C0008D8
:10008000691C0008691C0008691C0008691C00083C
:10009000691C0008691C0008691C0008F1180008A8
:1000A000691C0008691C0008691C0008691C00081C
:1000B000691C0008691C0008691C0008691C00080C
:1000C000691C0008691C0008691C0008691C0008FC
:1000D000691C0008691C0008691C0008998D00084B
:1000E000691C0008691C0008691C0008691C0008DC
:1000F000691C0008691C0008691C0008691C0008CC
:10010000691C0008691C0008691C0008691C0008BB
:10011000691C0008691C0008691C0008691C0008AB
:10012000691C0008691C0008FD1800081119000866
:10013000691C0008691C0008691C0008691C00088B
:10014000691C0008691C0008691C0008691C00087B
:10015000691C0008691C0008691C0008691C00086B
:10016000691C0008691C0008691C0008691C00085B
:10017000691C0008691C0008691C000800000000D8
:08018000691C0008691C00085D
:1001C00010B5054C237833B9044B13B10448AFF391
:1001D00000800123237010BD700A00200000000081
:1001E0002CF9000808B5034B1BB103490348AFF3D2
:1001F000008008BD00000000740A00202CF90008EF
:1002000081F0004102E000BF83F0004330B54FEAC7
:1002100041044FEA430594EA050F08BF90EA020F34
:100220001FBF54EA000C55EA020C7FEA645C7FEAC7
:10023000655C00F0E2804FEA5454D4EB5555B8BFEA
:100240006D420CDD2C4480EA020281EA030382EA5B
:10025000000083EA010180EA020281EA0303362DED
:1002600088BF30BD11F0004F4FEA01314FF4801CC0
:100270004CEA113102D0404261EB410113F0004FD2
:100280004FEA03334CEA133302D0524263EB430389
:1002900094EA050F00F0A780A4F10104D5F1200E27
:1002A0000DDB02FA0EFC22FA05F2801841F1000182
:1002B00003FA0EF2801843FA05F359410EE0A5F156
:1002C00020050EF1200E012A03FA0EFC28BF4CF087
:1002D000020C43FA05F3C01851EBE37101F000453D
:1002E00007D54FF0000EDCF1000C7EEB00006EEB4A
:1002F0000101B1F5801F1BD3B1F5001F0CD34908D4
:100300005FEA30004FEA3C0C04F101044FEA44522A
:1003100012F5800F80F09A80BCF1004F08BF5FEAB1
:10032000500C50F1000041EB045141EA050130BD91
:100330005FEA4C0C404141EB0101013C28BFB1F5A3
:10034000801FE9D291F0000F04BF01460020B1FAEE
:1003500081F308BF2033A3F10B03B3F120020CDAC1
:100360000C3208DD02F1140CC2F10C0201FA0CF09F
:1003700021FA02F10CE002F11402D8BFC2F1200C04
:1003800001FA02F120FA0CFCDCBF41EA0C019040BA
:10039000E41AA2BF01EB0451294330BD6FEA040403
:1003A0001F3C1CDA0C340EDC04F11404C4F12002EE
:1003B00020FA04F001FA02F340EA030021FA04F300
:1003C00045EA030130BDC4F10C04C4F1200220FA57
:1003D00002F001FA04F340EA0300294630BD21FA95
:1003E00004F0294630BD94F0000F83F4801306BF5B
:1003F00081F480110134013D4EE77FEA645C18BF4F
:100400007FEA655C29D094EA050F08BF90EA020FE5
:1004100005D054EA000C04BF1946104630BD91EADD
:10042000030F1EBF0021002030BD5FEA545C05D1E0
:100430004000494128BF41F0004130BD14F580041F
:100440003CBF01F5801130BD01F0004545F0FE4193
:1004500041F470014FF0000030BD7FEA645C1ABFC8
:10046000194610467FEA655C1CBF0B46024650EAFF
:10047000013406BF52EA033591EA030F41F400212B
:1004800030BD00BF90F0000F04BF0021704730B5B1
:100490004FF4806404F132044FF000054FF0000186
:1004A00050E700BF90F0000F04BF0021704730B547
:1004B0004FF4806404F1320410F0004548BF40421C
:1004C0004FF000013EE700BF42004FEAE2014FEA71
:1004D00031014FEA02701FBF12F07F4393F07F4F4C
:1004E00081F06051704732F07F4208BF704793F04F
:1004F0007F4F04BF41F40021704730B54FF4607462
:1005000001F0004521F000411CE700BF50EA010264
:1005100008BF704730B54FF000050AE050EA01020D
:1005200008BF704730B511F0004502D5404261EB7D
:1005300041014FF4806404F132045FEA915C3FF4BE
:10054000D8AE4FF003025FEADC0C18BF03325FEA5B
:10055000DC0C18BF033202EBDC02C2F1200300FA0C
:1005600003FC20FA02F001FA03FE40EA0E0021FA31
:1005700002F11444BDE600BF4FEA4102B2F1E0438C
:1005800024BFB3F5001CDCF1FE5C0DD901F0004C7A
:100590004FEAC0024CEA5070B2F1004F40EB8300CA
:1005A00008BF20F00100704711F0804F21D113F1F6
:1005B0003872BCBF01F00040704741F480114FEA2F
:1005C0005252C2F11802C2F1200C10FA0CF320FAB8
:1005D00002F018BF40F001004FEAC1234FEAD323D5
:1005E00003FA0CFC40EA0C0023FA02F34FEA43033F
:1005F000CCE77FEA625307D150EA01331EBF4FF0C8
:10060000FE4040F44000704701F0004040F0FE40E2
:1006100040F40000704700BF53B94AB9002908BF31
:1006200000281CBF4FF0FF314FF0FF3000F074B9CD
:10063000ADF1080C6DE904CE00F006F8DDF804E039
:10064000DDE9022304B070472DE9F047089D044618
:100650008E46002B4DD18A42944669D9B2FA82F275
:1006600052B101FA02F3C2F1200120FA01F10CFAB1
:1006700002FC41EA030E94404FEA1C48210CBEFBE9
:10068000F8F61FFA8CF708FB16E341EA034306FB72
:1006900007F199420AD91CEB030306F1FF3080F001
:1006A0001F81994240F21C81023E63445B1AA4B24E
:1006B000B3FBF8F008FB103344EA034400FB07F7F0
:1006C000A7420AD91CEB040400F1FF3380F00A8131
:1006D000A74240F207816444023840EA0640E41B26
:1006E00000261DB1D4400023C5E900433146BDE8D2
:1006F000F0878B4209D9002D00F0EF800026C5E974
:10070000000130463146BDE8F087B3FA83F6002E8B
:100710004AD18B4202D3824200F2F980841A61EB03
:10072000030301209E46002DE0D0C5E9004EDDE721
:1007300002B9FFDEB2FA82F2002A40F09280A1EB09
:100740000C014FEA1C471FFA8CFE0126200CB1FB5E
:10075000F7F307FB131140EA01410EFB03F0884257
:1007600008D91CEB010103F1FF3802D2884200F2E4
:10077000CB804346091AA4B2B1FBF7F007FB101176
:1007800044EA01440EFB00FEA64508D91CEB040414
:1007900000F1FF3102D2A64500F2BB800846A4EB6F
:1007A0000E0440EA03409CE7C6F12007B34022FA5A
:1007B00007FC4CEA030C20FA07F401FA06F31C4389
:1007C000F9404FEA1C4900FA06F3B1FBF9F8200C96
:1007D0001FFA8CFE09FB181140EA014108FB0EF0DC
:1007E000884202FA06F20BD91CEB010108F1FF3A2C
:1007F00080F08880884240F28580A8F10208614438
:10080000091AA4B2B1FBF9F009FB101144EA014145
:1008100000FB0EFE8E4508D91CEB010100F1FF34F0
:100820006CD28E456AD90238614440EA0840A0FB88
:100830000294A1EB0E01A142C846A64656D353D05E
:100840005DB1B3EB080261EB0E0101FA07F722FA82
:1008500006F3F1401F43C5E9007100263146BDE8AB
:10086000F087C2F12003D8400CFA02FC21FA03F30E
:10087000914001434FEA1C471FFA8CFEB3FBF7F08F
:1008800007FB10360B0C43EA064300FB0EF69E42B4
:1008900004FA02F408D91CEB030300F1FF382FD24D
:1008A0009E422DD9023863449B1B89B2B3FBF7F6F5
:1008B00007FB163341EA034106FB0EF38B4208D9CE
:1008C0001CEB010106F1FF3816D28B4214D9023E0F
:1008D0006144C91A46EA004638E72E46284605E72D
:1008E0000646E3E61846F8E64B45A9D2B9EB0208FE
:1008F00064EB0C0E0138A3E74646EAE7204694E78E
:100900004046D1E7D0467BE7023B614432E73046C0
:1009100009E76444023842E7704700BF70B48407B7
:1009200046D04C1E002941D0D5B2034602E0611EDC
:10093000E4B30C4603F8015B9907F8D1032C2ED9D8
:10094000D5B245EA05250F2C45EA054519D92646B5
:1009500003F11001103E0F2E41F8105C41F80C5CC1
:1009600041F8085C41F8045C01F11001F2D8A4F1EF
:10097000100121F00F0104F00F041031032C0B447F
:100980000DD91E4621460439032946F8045BFAD8DE
:10099000211F21F0030104310B4404F003042CB1A6
:1009A000D2B21C4403F8012BA342FBD170BC7047A8
:1009B0000C460346C2E70000844641EA000313F0F8
:1009C00003036DD1403A41D351F8043B40F8043B56
:1009D00051F8043B40F8043B51F8043B40F8043B19
:1009E00051F8043B40F8043B51F8043B40F8043B09
:1009F00051F8043B40F8043B51F8043B40F8043BF9
:100A000051F8043B40F8043B51F8043B40F8043BE8
:100A100051F8043B40F8043B51F8043B40F8043BD8
:100A200051F8043B40F8043B51F8043B40F8043BC8
:100A300051F8043B40F8043B51F8043B40F8043BB8
:100A400051F8043B40F8043B403ABDD2303211D358
:100A500051F8043B40F8043B51F8043B40F8043B98
:100A600051F8043B40F8043B51F8043B40F8043B88
:100A7000103AEDD20C3205D351F8043B40F8043B58
:100A8000043AF9D2043208D0D2071CBF11F8013B56
:100A900000F8013B01D30B8803806046704700BF1C
:100AA000082A13D38B078DD010F003038AD0C3F12B
:100AB0000403D21ADB071CBF11F8013B00F8013B0D
:100AC00080D331F8023B20F8023B7BE7043AD9D3CC
:100AD000013A11F8013B00F8013BF9D20B780370A1
:100AE0004B7843708B78837060467047000000003D
:100AF00000000000000000000000000000000000F6
:100B000090F800F06DE9024520F007016FF0000C4D
:100B100010F0070491F820F040F049804FF00004F5
:100B20006FF00700D1E9002391F840F000F10800D0
:100B300082FA4CF2A4FA8CF283FA4CF3A2FA8CF308
:100B40004BBBD1E9022382FA4CF200F10800A4FA6F
:100B50008CF283FA4CF3A2FA8CF3E3B9D1E90423C3
:100B600082FA4CF200F10800A4FA8CF283FA4CF3FA
:100B7000A2FA8CF37BB9D1E9062301F1200182FAB4
:100B80004CF200F10800A4FA8CF283FA4CF3A2FABA
:100B90008CF3002BC6D0002A04BF04301A4612BAC8
:100BA000B2FA82F2FDE8024500EBD2007047D1E9CB
:100BB000002304F00305C4F100004FEAC50514F05A
:100BC000040F91F840F00CFA05F562EA05021CBF2B
:100BD00063EA050362464FF00004A9E70000000045
:100BE00001F0FF01102A2BDB10F0070F08D010F8DE
:100BF000013B013A8B422DD010F0070F42B3F6D1E2
:100C0000F0B441EA012141EA014122F007047FF0FA
:100C100000070023F0E80256083C85EA010586EA51
:100C2000010685FA47F5A3FA87F586FA47F6A5FA8D
:100C300087F68EB9EED1F0BC01F0FF0102F0070299
:100C400032B110F8013B013A83EA010313B1F8D144
:100C50000020704701387047002D06BF3546033825
:100C6000073815F0010F07D1013015F4807F02BF5E
:100C7000013015F4C03F0130F0BC0138704700BFAF
:100C800070B54FF0FF0C4CF4E06C1CEA11541DBF22
:100C90001CEA135594EA0C0F95EA0C0F00F0DEF8ED
:100CA0002C4481EA030621EA4C5123EA4C5350EAD2
:100CB000013518BF52EA033541F4801143F4801323
:100CC00038D0A0FB02CE4FF00005E1FB02E506F0B4
:100CD0000042E0FB03E54FF00006E1FB03569CF009
:100CE000000F18BF4EF0010EA4F1FF04B6F5007F0F
:100CF00064F5407404D25FEA4E0E6D4146EB060681
:100D000042EAC62141EA55514FEAC52040EA5E5009
:100D10004FEACE2EB4F1FD0C88BFBCF5E06F1ED8B3
:100D2000BEF1004F08BF5FEA500E50F1000041EBEA
:100D3000045170BD06F0004646EA010140EA020097
:100D400081EA0301B4EB5C04C2BFD4EB0C0541EAB9
:100D5000045170BD41F480114FF0000E013C00F3CE
:100D6000AB8014F1360FDEBF002001F0004170BDF2
:100D7000C4F10004203C35DA0C341BDC04F114040B
:100D8000C4F1200500FA05F320FA04F001FA05F297
:100D900040EA020001F0004221F0004110EBD37064
:100DA00021FA04F642EB06015EEA430E08BF20EA90
:100DB000D37070BDC4F10C04C4F1200500FA04F333
:100DC00020FA05F001FA04F240EA020001F00041C5
:100DD00010EBD37041F100015EEA430E08BF20EA38
:100DE000D37070BDC4F1200500FA05F24EEA020E80
:100DF00020FA04F301FA05F243EA020321FA04F0AF
:100E000001F0004121FA04F220EA020000EBD37065
:100E10005EEA430E08BF20EAD37070BD94F0000F65
:100E20000FD101F00046400041EB010111F4801F99
:100E300008BF013CF7D041EA060195F0000F18BF4A
:100E4000704703F00046520043EB030313F4801F86
:100E500008BF013DF7D043EA0603704794EA0C0F40
:100E60000CEA135518BF95EA0C0F0CD050EA410656
:100E700018BF52EA4306D1D181EA030101F00041D3
:100E80004FF0000070BD50EA410606BF10461946FB
:100E900052EA430619D094EA0C0F02D150EA013607
:100EA00013D195EA0C0F05D152EA03361CBF104648
:100EB00019460AD181EA030101F0004141F0FE41E7
:100EC00041F470014FF0000070BD41F0FE4141F46B
:100ED000780170BD70B54FF0FF0C4CF4E06C1CEA6B
:100EE00011541DBF1CEA135594EA0C0F95EA0C0F20
:100EF00000F0A7F8A4EB050481EA030E52EA0335DB
:100F00004FEA013100F088804FEA03334FF08055FB
:100F100045EA131343EA12634FEA022245EA111528
:100F200045EA10654FEA00260EF000419D4208BFD9
:100F3000964244F1FD0404F5407402D25B084FEA86
:100F40003202B61A65EB03055B084FEA32024FF432
:100F500080104FF4002CB6EB020E75EB030E22BF8F
:100F6000B61A754640EA0C005B084FEA3202B6EB4F
:100F7000020E75EB030E22BFB61A754640EA5C00FE
:100F80005B084FEA3202B6EB020E75EB030E22BF8E
:100F9000B61A754640EA9C005B084FEA3202B6EB8F
:100FA000020E75EB030E22BFB61A754640EADC004E
:100FB00055EA060E18D04FEA051545EA16754FEAB0
:100FC00006164FEAC30343EA52734FEAC2025FEACE
:100FD0001C1CC0D111F4801F0BD141EA00014FF05D
:100FE00000004FF0004CB6E711F4801F04BF01432E
:100FF0000020B4F1FD0C88BFBCF5E06F3FF6AFAE4A
:10100000B5EB030C04BFB6EB020C5FEA500C50F1D9
:10101000000041EB045170BD0EF0004E4EEA11315C
:1010200014EB5C04C2BFD4EB0C0541EA045170BD63
:1010300041F480114FF0000E013C90E645EA060EA7
:101040008DE60CEA135594EA0C0F08BF95EA0C0FD5
:101050003FF43BAF94EA0C0F0AD150EA01347FF41D
:1010600034AF95EA0C0F7FF425AF104619462CE7F4
:1010700095EA0C0F06D152EA03353FF4FDAE104657
:10108000194622E750EA410618BF52EA43067FF4A8
:10109000C5AE50EA41047FF40DAF52EA43057FF438
:1010A000EBAE12E74FF0FF3C06E000BF4FF0010C43
:1010B00002E000BF4FF0010C4DF804CD4FEA410CA7
:1010C0007FEA6C5C4FEA430C18BF7FEA6C5C1BD074
:1010D00001B050EA410C0CBF52EA430C91EA030FF5
:1010E00002BF90EA020F0020704710F1000F91EA52
:1010F000030F58BF994208BF90422CBFD8176FEA20
:10110000E37040F0010070474FEA410C7FEA6C5CED
:1011100002D150EA013C07D14FEA430C7FEA6C5CF4
:10112000D6D152EA033CD3D05DF8040B704700BF20
:101130008446104662468C461946634600E000BF6E
:1011400001B5FFF7B7FF002848BF10F1000F01BD40
:101150004DF808EDFFF7F4FF0CBF012000205DF80B
:1011600008FB00BF4DF808EDFFF7EAFF34BF012090
:1011700000205DF808FB00BF4DF808EDFFF7E0FF29
:1011800094BF012000205DF808FB00BF4DF808ED7A
:10119000FFF7CEFF94BF012000205DF808FB00BFE1
:1011A0004DF808EDFFF7C4FF34BF012000205DF8C3
:1011B00008FB00BF4FEA410C7FEA6C5C02D150EAA9
:1011C000013C0AD14FEA430C7FEA6C5C02D152EA3F
:1011D000033C02D14FF0000070474FF00100704710
:1011E0004FEA410212F5001215D211D56FF478734F
:1011F000B3EB625212D94FEAC12343F0004343EAF2
:10120000505311F0004F23FA02F018BF40427047CC
:101210004FF00000704750EA013005D111F0004056
:1012200008BF6FF0004070474FF00000704700BFEC
:1012300010B582B000240094164B1A6B42F4800261
:101240001A631A6B02F480020092009A01941A6BDE
:1012500042F400121A631B6B03F400130193019B09
:10126000224605210C2000F065FD0C2000F09AFDBF
:10127000224605213A2000F05DFD3A2000F092FD63
:10128000224605213B2000F055FD3B2000F08AFD61
:1012900002B010BD003802402DE9F04387B007F0DE
:1012A00093F807463C68D7F80480D7F8089007F011
:1012B0008FF810EE106A2046FFF706F904460D4637
:1012C0003046FFF701F9CDE904014846FFF7FCF885
:1012D000CDE902014046FFF7F7F8CDE900012246CB
:1012E0002B46034807F04AFF0A2002F0DEFED9E74A
:1012F00044040108034B0360034B0B60802313601D
:10130000704700BF940C0020940A002010B58EB0E6
:10131000124C0DF11C0CA646BEE80F00ACE80F0005
:101320009EE807008CE80700002107A802F088FE6D
:101330000B4B1860EE4604F11C0CBCE80F00AEE845
:101340000F009CE807008EE807000021684602F0C5
:1013500077FE044B18600EB010BD00BFE803010813
:101360008C0A0020900A00202DE9F04F8DB0002457
:101370000794089409940A940B9401945A4B1A6B9D
:1013800042F040021A631A6B02F040020192019A85
:1013900002941A6B42F002021A631A6B02F0020204
:1013A0000292029A03941A6B42F001021A631A6BBA
:1013B00002F001020392039A04941A6B42F00402B1
:1013C0001A631A6B02F004020492049A05941A6BD1
:1013D00042F080021A631A6B02F080020592059AAD
:1013E00006941A6B42F020021A631B6B03F0200371
:1013F0000693069BDFF8FC8001224021404600F066
:10140000A3FF3A4E22464FF4E051304600F09CFFD5
:10141000DFF8E4B001221021584600F095FFDFF814
:10142000DC9001221146484600F08EFF40230793CE
:101430000125089509950A9507A9404600F092FEF6
:101440004FF4E05307930895099502270A9707A9D7
:10145000304600F087FE092607964FF4041ACDF8AF
:1014600020A0099507A9404600F07CFE10230793B1
:10147000089509950A9707A9584600F073FE30238E
:101480000793CDF820A0099507A9194800F06AFE36
:101490000795089509950A9707A9484600F062FE46
:1014A00022460521062000F045FC062000F07AFCCB
:1014B00022460521304600F03DFC304600F072FC2B
:1014C000224605210A2000F035FC0A2000F06AFCC3
:1014D00022460521172000F02DFC172000F062FCA9
:1014E0000DB0BDE8F08F00BF00380240001C024084
:1014F00000080240001802400000024000040240C0
:1015000008B50B480B4B03600B4B43600023836013
:10151000C3604FF48042026143618361C36103622F
:1015200001F072F900B908BD00F062F8FBE700BFF6
:10153000E80C0020005C0040801A06002DE9F04312
:1015400089B00023039304930593069307930268DD
:10155000234B9A4202D009B0BDE8F08300250095E4
:10156000204C236B43F004032363236B03F0040339
:101570000093009B0195236B43F001032363236BCE
:1015800003F001030193019B4FF4007303934FF0A9
:101590001209CDF810904FF00108CDF81480032700
:1015A00006970426079603A90F4800F0DBFD4FF4C9
:1015B00080730393CDF81090CDF8148006970796AA
:1015C00003A90A4800F0CEFD0295236C43F4000302
:1015D0002364236C03F400030293029BBBE700BF68
:1015E000005C004000380240000802400000024059
:1015F00072B6FEE700B595B03022002108A807F0CA
:101600006BFD0023039304930593069307930193C3
:10161000214A116C41F080511164126C02F0805229
:101620000192019A02931D4B1A6842F480421A609B
:101630001B6803F480430293029B012308934FF439
:101640008033099302230E934FF480020F920C22F1
:1016500010924FF4A872119212930423139308A8C6
:1016600001F0D4FB98B90F230393022304930023C2
:1016700005934FF4A05306934FF48053079305212D
:1016800003A801F011FE20B915B05DF804FBFFF7C7
:10169000AFFFFFF7ADFF00BF003802400070004011
:1016A00008B500F009FBFFF7A5FFFFF75DFEFFF7A8
:1016B000BFFDFFF725FF00F015F800F0B7F900F0C7
:1016C0000DFA00F0EDF9064807F0D8FB03F03CFDF9
:1016D00007F0BAFAFFF71AFE02F0ADFCFEE700BF12
:1016E000440F002008B50F480F4B03604FF482737E
:1016F000436000238360C3600222026101224261D1
:101700004FF4007282613822C261036243628362D5
:101710000A23C36201F03CFF00B908BDFFF768FF70
:10172000FBE700BFFC0D0020003001402DE9F04335
:1017300089B00023039304930593069307930268EB
:101740003F4B9A4202D009B0BDE8F0830446002521
:10175000009503F584335A6C42F480525A645A6CF3
:1017600002F480520092009A01951A6B42F0020234
:101770001A631A6B02F002020192019A02951A6B27
:1017800042F001021A631B6B03F001030293029BF8
:10179000182303934FF00209CDF810904FF0010881
:1017A000CDF81480032706970526079603A9254838
:1017B00000F0D8FC80230393CDF81090CDF814806E
:1017C0000697079603A9204800F0CCFC1F48204B41
:1017D00003604FF0C06343608560C5604FF4806371
:1017E000036145618561C5614FF440330362456221
:1017F00000F064FBE8B9154BE3649C631548164B95
:1018000003604FF0C0634360402383600023C360E4
:101810004FF48062026143618361C3614FF400321F
:101820000262436200F04AFB30B90A4BA3649C6336
:1018300089E7FFF7DDFEDEE7FFF7DAFEF5E700BF39
:101840000030014000040240000002403C0D002036
:10185000406402409C0D00205864024000B583B0F3
:10186000002200920D4B596C41F480415964596C2F
:1018700001F48041009100990192196C41F080516E
:1018800019641B6C03F080530193019B0F216FF0CF
:10189000010000F04FFA03B05DF804FB003802408D
:1018A000FEE7FEE7FEE7FEE7FEE7704708B500F05B
:1018B0001DFA03F073FB012800D108BD02F01AFDE8
:1018C000FBE708B5012000F045FD08BD08B508207C
:1018D00000F040FD08BD08B5102000F03BFD08BD3C
:1018E00008B5024800F050FB08BD00BFA00E002064
:1018F00008B5202000F02EFD08BD000008B506F058
:10190000C1FD024800F040FB08BD00BF3C0D0020B7
:1019100008B5024800F038FB08BD00BF9C0D002050
:101920000120704708B507F0ADFB162303604FF0A8
:10193000FF3008BD08B54FF0FF31FFF7F3FFFEE7BA
:1019400010B503460C4A0D490D48006840B10C48DB
:1019500000680344521A934206D8094A136010BD26
:101960000748084C0460F2E707F08CFB0C23036087
:101970004FF0FF30F3E700BF00000220002000001E
:10198000540E0020804F0020034AD2F8883043F4E0
:101990007003C2F88830704700ED00E00268094B20
:1019A0009A4200D0704782B000230193064B5A6CD4
:1019B00042F400325A645B6C03F400330193019BE0
:1019C00002B07047004401400038024000B587B0C3
:1019D0000023019302930393049305930268104B31
:1019E0009A4202D007B05DF804FB002300930D4B30
:1019F0001A6B42F020021A631B6B03F02003009362
:101A0000009B40230193022302930122039204933B
:101A10000323059301A9044800F0A4FBE2E700BFFB
:101A200000440140003802400014024000B589B073
:101A30000023019302930393049305930693079362
:101A40001548164A02604360836041F28732C260E3
:101A50000361836102F012F8A0B90F4802F03AF86E
:101A600098B960230193002202920392059201A982
:101A7000094802F093F858B90748FFF7A7FF09B0E3
:101A80005DF804FBFFF7B4FDE7E7FFF7B1FDE8E71A
:101A9000FFF7AEFDF0E700BF580E00200044014004
:101AA00008B50B480B4B03600B4B4360002383606E
:101AB000C3604FF4806202610C2242618361C361A2
:101AC00002F0A6F900B908BDFFF792FDFBE700BFE1
:101AD000000F002000480040A086010008B50A4819
:101AE0000A4B03604FF4E133436000238360C3601B
:101AF00003610C2242618361C36102F089F900B97C
:101B000008BDFFF775FDFBE7440F002000140140FE
:101B100030B58BB000230593069307930893099380
:101B20000368364A934204D0354A934241D00BB001
:101B300030BD044600250195324B1A6C42F48022D8
:101B40001A641A6C02F480220192019A02951A6BAF
:101B500042F004021A631B6B03F004030293029B1E
:101B60004FF440630593022306930323089307234E
:101B7000099305A9244800F0F5FA2448244B036092
:101B80004FF0006343608560C5604FF4806303617C
:101B900045618561C5614FF400330362456200F021
:101BA0008DF918B9194BA3639C63C0E7FFF720FDBB
:101BB000F8E700210391134B5A6C42F020025A645B
:101BC0005A6C02F020020392039A04911A6B42F0BD
:101BD00040021A631B6B03F040030493049B4FF411
:101BE0008443059302230693032308930823099350
:101BF00005A9084800F0B6FA99E700BF0048004080
:101C0000001401400038024000080240A00E0020ED
:101C10002860024000180240DFF834D00D480E4919
:101C20000E4A002302E0D458C4500433C4188C4236
:101C3000F9D30B4A0B4C002301E013600432A2429B
:101C4000FBD3FFF7A1FE07F023FAFFF729FD70474A
:101C50000000022000000020700A0020501101083E
:101C6000700A0020804F0020FEE7000010B50446F7
:101C70000E4B18784FF47A73B3FBF0F30C4A1068EC
:101C8000B0FBF3F000F09CF868B90F2C01D90120EB
:101C90000AE0002221464FF0FF3000F04BF8054BE0
:101CA0001C60002000E0012010BD00BF14000020D7
:101CB000100000201800002008B50B4B1A6842F4F1
:101CC00000721A601A6842F480621A601A6842F45C
:101CD00080721A60032000F01BF80F20FFF7C6FF88
:101CE000FFF7BCFD002008BD003C0240034A11681C
:101CF000034B1B780B441360704700BF880F002014
:101D000014000020014B1868704700BF880F0020A6
:101D1000074AD36823F4E0631B041B0C000200F4A1
:101D2000E060034343F0BF6343F40033D360704784
:101D300000ED00E000B5194BDB68C3F30223C3F1EB
:101D4000070CBCF1040F28BF4FF0040C03F1040E84
:101D5000BEF1060F18D9033B4FF0FF3E0EFA0CFC04
:101D600021EA0C0199400EFA03F322EA0303194316
:101D700000280BDB0901C9B200F1604000F56140A9
:101D800080F800135DF804FB0023E5E700F00F0086
:101D90000901C9B2024B1954F4E700BF00ED00E09D
:101DA00014ED00E0002807DB00F01F0240090123CA
:101DB0009340024A42F82030704700BF00E100E043
:101DC0000138B0F1807F0BD24FF0E0235861054A13
:101DD000F02182F823100020986107221A617047D1
:101DE0000120704700ED00E010B40368D9B210394B
:101DF0000C4AA2FB014212090B4CA25CC2655F298E
:101E000009D923F47F7323F0030304338365806DC2
:101E10005DF8044B704723F47F7323F0030383655D
:101E2000F5E700BFABAAAAAA78040108836A826911
:101E300092B9012B0AD0022B02D00BB100207047BF
:101E4000C36A13F0807F28D100207047C36AB3F1C2
:101E5000C07F24D000207047B2F5005F09D0022B6C
:101E600025D9032B25D1C36A13F0807F23D100200D
:101E70007047032B03D8DFE803F01404140A002092
:101E80007047C36A13F0807F0DD100207047C36A8A
:101E9000B3F1C07F09D000207047012070470120B6
:101EA00070470120704701207047012070470120D2
:101EB00070470020704701207047000070B504464D
:101EC000FFF720FF002C5BD00546022384F8353055
:101ED000002384F834302268136823F00103136070
:101EE00023681A6812F0010F0AD0FFF70BFF431B9B
:101EF000052BF5D920236365032084F8350070BDD8
:101F00001A68204810406168A2680A43E1680A43E1
:101F100021690A4361690A43A1690A43E1690A43E5
:101F2000216A0A430243616A04291ED01A602668A6
:101F3000756925F00705636A1D43042B07D1A36A61
:101F40001D43E36A1BB12046FFF770FF90B975612E
:101F50002046FFF749FFE26D3F2393408360002056
:101F60006065012384F83530C9E7E16A206B0143DD
:101F70000A43DBE740236365012084F83500BEE7B0
:101F80000120BCE73F8010F0F0B583B00446002389
:101F90000193724B1D68724BA3FB0535AD0A876D2B
:101FA0003E68C26D08239340334210D003681A681C
:101FB00012F0040F0BD01A6822F004021A60C26DEE
:101FC00008239340BB60436D43F001034365E26D1A
:101FD00001239340334209D02268526912F0800FE6
:101FE00004D0BB60636D43F002036365E26D0423BC
:101FF0009340334209D02268126812F0020F04D0D5
:10200000BB60636D43F004036365E26D102393408E
:10201000334224D02268126812F0080F1FD0BB6030
:1020200023681A6812F4802F0DD01B6813F4002F58
:1020300004D1236C9BB12046984710E0A36C73B188
:10204000204698470BE01A6812F4807F03D11A6883
:1020500022F008021A60236C0BB120469847E26D0B
:1020600020239340334255D02268126812F0100F9B
:1020700050D0BB6094F83530DBB2052B0ED023680E
:102080001A6812F4802F33D01B6813F4002F2AD162
:10209000636C002B3ED0204698473BE022681368D3
:1020A00023F0160313602268536923F08003536101
:1020B000236CA3B12268136823F008031360E26D58
:1020C0003F239340BB60012384F83530002384F81C
:1020D0003430236D002B3FD0204698473CE0A36C62
:1020E000002BE7D1EBE7E36BA3B12046984711E063
:1020F0001A6812F4807F09D11A6822F010021A605F
:10210000012384F83530002384F83430E36B0BB1BD
:1021100020469847636DFBB1636D13F0010F17D034
:10212000052384F835302268136823F00103136017
:10213000019B01330193AB4204D823681B6813F061
:10214000010FF5D1012384F83530002384F83430B1
:10215000E36C0BB12046984703B0F0BD100000209F
:10216000B5814E1B00230F2B00F2E48070B582B0C6
:1021700060E085685E000324B44025EA0405CC686D
:10218000B4402C438460456825EA02054C68C4F3DA
:1021900000129A402A4342605AE0DC08083450F8A2
:1021A000246003F0070295000F22AA4026EA020EDF
:1021B0000A69AA4042EA0E0240F824205CE00722A5
:1021C00000E0002202FA0EF22A4302345A4D45F88A
:1021D00024205A4A94686FEA0C0224EA0C054E68DF
:1021E00016F4801F01D04CEA0405544CA560E46845
:1021F00002EA04054E6816F4001F01D04CEA0405FB
:102200004E4CE560646802EA04054E6816F4003F2F
:1022100001D04CEA0405494C6560246822404D68B1
:1022200015F4803F01D04CEA0402444C2260013393
:102230000F2B7DD801229A400C6804EA020C32EA86
:102240000404F4D14C6804F00304013C012C90D93F
:102250004A6802F00302032A09D0C4685D00032221
:10226000AA4024EA02048A68AA402243C2604A685B
:1022700002F00302022A90D004684FEA430E0322C0
:1022800002FA0EF224EA02044A6802F0030202FA99
:102290000EF2224302604A6812F4403FC7D0002287
:1022A0000192274A546C44F480445464526C02F402
:1022B00080420192019A9C08A51C1F4A52F82550A1
:1022C00003F003024FEA820E0F2202FA0EF225EA11
:1022D00002051C4A90423FF474AF02F580629042BE
:1022E0001AD002F58062904218D002F580629042C6
:1022F00016D002F58062904214D002F580629042BE
:1023000012D002F58062904210D002F580629042B5
:102310003FF455AF082255E7012253E7022251E767
:1023200003224FE704224DE705224BE7062249E747
:1023300002B070BD704700BF00380140003C014052
:1023400000380240000002400AB181617047090470
:102350008161704708B5054B5B69034200D108BD38
:10236000024B586106F03AF8F9E700BF003C014023
:1023700003685A6912F4806F01D1002070476FF42E
:1023800080625A6100230363202280F83D2080F898
:102390003E30026C42F00402026480F83C300120BE
:1023A00070472DE9F04107460D4690461E4624E051
:1023B000FFF7A8FC069BC01AB04200D8EEB9002374
:1023C0003B63202287F83D2087F83E303A6C42F08C
:1023D00020023A6487F83C3001201EE03B689C698B
:1023E00025EA040C1FFA8CFCBCFA8CFC4FEA5C1C3E
:1023F000E04511D1B6F1FF3FDAD1C5F30743012B18
:10240000ECD13B685B6925EA030C1FFA8CFCBCFA33
:102410008CFC4FEA5C1CEBE70020BDE8F0812DE965
:10242000F04105460E46174698463DE01A6842F4CC
:1024300000721A602B686FF480625A6100232B636C
:10244000202285F83D2085F83E302A6C42F00402B7
:102450002A6485F83C30012034E0FFF753FCA0EB00
:102460000800B84200D8FFB900232B63202285F86A
:102470003D2085F83E302A6C42F020022A6485F81F
:102480003C3001201EE02B689C6926EA0404A4B2BB
:10249000003C18BF0124A4B12B685A6912F4806F64
:1024A000C4D1B7F1FF3FD8D1C6F30743012BEAD11E
:1024B0002B685C6926EA0404A4B2003C18BF01241E
:1024C000E9E70020BDE8F08170B504460D461646E8
:1024D00023685B6913F0800F1CD12046FFF748FF8B
:1024E000D0B9B5F1FF3FF3D0FFF70CFC801BA84239
:1024F00001D8002DECD100232363202284F83D2055
:1025000084F83E30226C42F02002226484F83C3091
:10251000012000E0002070BD0120FCE72DE9F04320
:1025200085B004460D4691461F46DDF830800D9E6D
:102530000368196841F480711960009643460022CF
:102540004FF00111FFF72DFF60B9236805F0FE057C
:102550001D613346424626492046FFF760FF68B1B9
:10256000012008E023681B6813F4807F02D04FF439
:1025700000732364032005B0BDE8F08300230393B8
:1025800023685A6903929B690393039B3246414631
:102590002046FFF799FF30B9012F0FD123685FFA6A
:1025A00089F61E61E7E7236C042B01D00120E2E7E6
:1025B0002268136843F400731360F7E723684FEA57
:1025C00019221A61324641462046FFF77DFF20B9A5
:1025D00023685FFA89F61E61CDE7236C042B01D0D6
:1025E0000120C8E72268136843F400731360F7E71B
:1025F000020001002DE9F04784B004460D4616465E
:1026000099460C9FDDF834800268136843F48063B8
:1026100013600368196841F480711960CDF8008077
:102620003B4600224FF00111FFF7BBFE70B95FFA85
:1026300085FA236805F0FE051D6143463A46414987
:102640002046FFF7ECFE68B1012008E023681B6814
:1026500013F4807F02D04FF400732364032004B08E
:10266000BDE8F0870023039323685A6903929B69AE
:102670000393039B424639462046FFF725FF80B966
:10268000B9F1010F18D12368F6B21E6142463946EE
:102690002046FFF719FF68B3236C042B24D00120D8
:1026A000DDE7236C042B01D00120D8E722681368F2
:1026B00043F400731360F7E72368320A1A61424655
:1026C00039462046FFF700FF18B92368F6B21E61AD
:1026D000DCE7236C042B01D00120C0E722681368DB
:1026E00043F400731360F7E72268136843F4007340
:1026F0001360D4E72268136843F480731360CDF845
:1027000000803B4600224FF001112046FFF749FEB2
:1027100068B922684AF00103136143463A46094901
:102720002046FFF77CFE002899D0012097E7236818
:102730001B6813F4807F02D04FF4007323640320DE
:102740008DE700BF0200010070B504460D46164635
:1027500023685B6913F0040F1CD12046FFF708FEC5
:10276000D0B9B5F1FF3FF3D0FFF7CCFA801BA842F8
:1027700001D8002DECD100232363202284F83D20D2
:1027800084F83E30226C42F02002226484F83C300F
:10279000012000E0002070BD0120FCE770B5054677
:1027A0000C4616462B68596911F0400F29D159691A
:1027B00011F0100F15D1FFF7A5FA801BA04201D828
:1027C000002CEFD100232B63202285F83D2085F8D3
:1027D0003E302A6C42F020022A6485F83C30012009
:1027E00070BD6FF010025A6100232B63202285F820
:1027F0003D2085F83E302A6C2A6485F83C30012063
:10280000EEE70020ECE70000002800F0CC8070B577
:10281000044690F83D30002B77D0242384F83D30D7
:102820002268136823F0010313602268136843F4DD
:10283000004313602268136823F40043136000F020
:10284000E9FD62685A4B9A4264D85A4B98428CBF51
:1028500000230123002B40F0A8805749A1FB003141
:102860008B0C25686A6822F03F0242EA91426A6056
:1028700021680A6A22F03F0266684D4DAE424FD889
:10288000013313430B622168CA6922F44F4222F0DC
:10289000FF026668464B9E424CD8431E7600B3FB4F
:1028A000F6F3013340F6FC70034278D0C3F30B0318
:1028B0001343CB6121680B6823F0C003E269206AEF
:1028C000024313430B6021688B6823F4034323F016
:1028D000FF032269E068024313438B602168CB68E1
:1028E00023F0FF036269A06902431343CB602268AF
:1028F000136843F00103136000202064202384F850
:102900003D30206384F83E0070BD80F83C30FEF717
:1029100015FE82E7294B98428CBF0023012399E7DB
:102920004FF4967505FB03F3254DA5FB03539B0957
:102930000133A6E7A368BBB9451E06EB460CB5FB01
:10294000FCF50135C5F30B05B5FA85F56D0945BBF9
:10295000C3B9013806EB4603B0FBF3F30133C3F30D
:102960000B0343F40043A3E7451E06EB860C0CEB78
:102970008C0CB5FBFCF50135C5F30B05B5FA85F5F7
:102980006D09E4E7013806EB860303EB8303B0FB34
:10299000F3F30133C3F30B0343F4404388E7042309
:1029A00086E7012384E7012070470120ACE700BFE0
:1029B000A08601007F841E0083DE1B43FF083D00CC
:1029C000D34D62102DE9F04383B004460F46904684
:1029D00099460C9EFFF796F9054694F83D00C0B263
:1029E000202803D0022003B0BDE8F083009519230E
:1029F00001224B492046FFF7D4FC002840F0898093
:102A000094F83C30012B00F08680012384F83C30A0
:102A100023681A6812F0010F03D11A6842F001020C
:102A20001A602268136823F400631360212384F87A
:102A30003D30402384F83E30002323640A9B6362C8
:102A4000BDF82C306385638D2385364BE362019599
:102A500000964B46424639462046FFF75FFD002868
:102A60005BD1238D002B35D02A4631462046FFF717
:102A70002BFD20BB626A236812781A61626A531CBC
:102A80006362218D013989B22185638D9BB2013B3F
:102A90009BB263852368586910F0040FE1D00029C8
:102AA000DFD052781A61636A01336362238D013B80
:102AB0002385638D9BB2013B9BB26385D1E7236C79
:102AC000042B01D001208EE72268136843F40073C1
:102AD0001360F7E72A4631462046FFF735FE50B12E
:102AE000236C042B01D001207DE72268136843F496
:102AF00000731360F7E72268136843F400731360F0
:102B0000202384F83D30002384F83E3084F83C30A4
:102B100069E7022067E7022065E7012063E700BF5D
:102B2000020010000000FFFF2DE9F04387B00446CB
:102B30000F4690469946109EFFF7E4F8054694F834
:102B40003D00C0B2202804D00227384607B0BDE8B7
:102B5000F08300951923012288492046FFF721FCC4
:102B6000002840F0438194F83C30012B00F0408174
:102B7000012384F83C3023681A6812F0010F03D156
:102B80001A6842F001021A602268136823F4006395
:102B90001360222384F83D30402384F83E30002324
:102BA00023640E9B6362BDF83C306385638D23858F
:102BB000734BE362019500964B46424639462046E8
:102BC000FFF718FD0746002840F01481238D5BB9FC
:102BD000029323685A6902929A690292029A1A68C9
:102BE00042F400721A6075E0012B0AD0022B1AD051
:102BF0000023059323685A6905929B690593059BF9
:102C000068E02268136823F4806313600023039351
:102C100023685A6903929A690392039A1A6842F4E4
:102C200000721A6056E02268136823F48063136010
:102C30002268136843F4006313600023049323683D
:102C40005A6904929B690493049B43E02A463146E7
:102C50002046FFF7A3FD002840F0CE8023681A69C4
:102C6000636A1A70636A01336362238D013B2385B3
:102C7000638D9BB2013B9BB263852BE0009533468D
:102C8000002240492046FFF78CFB002840F0B68028
:102C90002268136843F40073136023681A69636A37
:102CA0001A70626A531C6362238D013B2385638D16
:102CB0009BB2013B9BB2638523681B695370636AB7
:102CC00001336362238D013B2385638D9BB2013BFE
:102CD0009BB26385238D002B7FD0032B54D8012B0F
:102CE000B4D0022BCAD00095334600222549204695
:102CF000FFF757FB002840F083802268136823F415
:102D00008063136023681A69636A1A70636A013307
:102D10006362238D013B2385638D9BB2013B9BB294
:102D2000638500953346002216492046FFF739FB9C
:102D3000002867D12268136843F400731360236886
:102D40001A69636A1A70626A531C6362238D013BBD
:102D50002385638D9BB2013B9BB2638523681B690E
:102D60005370636A01336362238D013B2385638D56
:102D70009BB2013B9BB26385ACE700BF0200100031
:102D80000000FFFF040001002A4631462046FFF7FD
:102D900005FD002838D123681A69636A1A70626ACF
:102DA000531C6362238D013B2385638D9BB2013BE2
:102DB0009BB263852368596911F0040F8AD01B699F
:102DC0005370636A01336362238D013B2385638DF6
:102DD0009BB2013B9BB263857CE7202384F83D30A6
:102DE000002384F83E3084F83C30AEE60227ACE69F
:102DF0000227AAE60127A8E60127A6E60127A4E6FE
:102E00000127A2E60127A0E601279EE6002800F0A0
:102E1000E08170B582B00446036813F0010F3BD027
:102E20009F4B9B6803F00C03042B2CD09C4B9B689E
:102E300003F00C03082B21D06368B3F5803F4FD01B
:102E4000B3F5A02F52D0964B1A6822F480321A6044
:102E50001A6822F480221A606368002B50D0FEF7B3
:102E600051FF05468E4B1B6813F4003F14D1FEF74B
:102E700049FF401B6428F5D90320B1E1884B5B680A
:102E800013F4800FD8D0864B1B6813F4003F03D097
:102E90006368002B00F09F81236813F0020F54D069
:102EA0007F4B9B6813F00C0F3ED07D4B9B6803F06B
:102EB0000C03082B33D0E368002B68D0794B012238
:102EC0001A60FEF71FFF0546754B1B6813F0020FD3
:102ED00054D1FEF717FF401B0228F5D903207FE1EC
:102EE0006F4A136843F480331360B5E76C4B1A687C
:102EF00042F480221A601A6842F480321A60ABE70A
:102F0000FEF700FF0546664B1B6813F4003FC3D075
:102F1000FEF7F8FE401B6428F5D9032060E1604B02
:102F20005B6813F4800FC6D15D4B1B6813F0020F72
:102F300003D0E368012B40F05081594A136823F015
:102F4000F803216943EAC1031360236813F0080FF3
:102F500042D063696BB3534B0122C3F8802EFEF756
:102F6000D1FE05464E4B5B6F13F0020F34D1FEF7D6
:102F7000C9FE401B0228F5D9032031E1484A1368F5
:102F800023F0F803216943EAC1031360DDE7454BF1
:102F900000221A60FEF7B6FE0546414B1B6813F08F
:102FA000020FD2D0FEF7AEFE401B0228F5D9032057
:102FB00016E13C4B0022C3F8802EFEF7A3FE054627
:102FC000374B5B6F13F0020F06D0FEF79BFE401BE2
:102FD0000228F5D9032003E1236813F0040F77D00A
:102FE0002F4B1B6C13F0805F33D1002301932C4BCC
:102FF0001A6C42F080521A641B6C03F080530193E8
:10300000019B0125284B1B6813F4807F23D0A36804
:10301000012B34D0052B38D0214B1A6F22F001023E
:103020001A671A6F22F004021A67A368002B3DD0BA
:10303000FEF768FE06461A4B1B6F13F0020F46D1CF
:10304000FEF760FE801B41F288339842F3D90320DB
:10305000C6E00025D6E7144A136843F48073136072
:10306000FEF750FE0646104B1B6813F4807FCED14E
:10307000FEF748FE801B0228F5D90320B0E0084A7D
:10308000136F43F001031367CFE7054B1A6F42F04C
:1030900004021A671A6F42F001021A67C5E700BFFF
:1030A000003802400000474200700040FEF72AFE50
:1030B0000646524B1B6F13F0020F08D0FEF722FE9C
:1030C000801B41F288339842F3D9032088E0EDB9A0
:1030D000A369002B00F08380484A926802F00C023A
:1030E000082A51D0022B17D0454B00221A66FEF752
:1030F00009FE0446414B1B6813F0007F42D0FEF7E7
:1031000001FE001B0228F5D9032069E03B4A136C3D
:1031100023F080531364DBE7394B00221A66FEF775
:10312000F1FD0546354B1B6813F0007F06D0FEF716
:10313000E9FD401B0228F5D9032051E0E369226A2A
:103140001343626A43EA8213A26A5208013A43EACD
:103150000243E26A43EA0263284A5360284B012291
:103160001A66FEF7CFFD0446244B1B6813F0007F60
:1031700006D1FEF7C7FD001B0228F5D903202FE07A
:1031800000202DE000202BE0012B2BD01B4B5B6897
:1031900003F48001E269914226D103F03F02216AE3
:1031A0008A4223D1616A47F6C0721A40B2EB811F8E
:1031B0001ED103F44031A26A5208013AB1EB024F2A
:1031C00018D103F07063E26AB3EB026F14D10020F0
:1031D00006E001207047012002E0012000E000200D
:1031E00002B070BD0120FBE70120F9E70120F7E7FD
:1031F0000120F5E70120F3E70120F1E70038024064
:103200000000474208B5254B9B6803F00C03042BD4
:103210003FD0082B3FD1214B5A6802F03F025B6838
:1032200013F4800F12D01D4B5968C1F388111C484C
:103230000023A1FB0001FDF7EFF9184B5B68C3F316
:10324000014301335B00B0FBF3F025E0134B5968F9
:10325000C1F3881C4FEA4C11B1EB0C006EEB0E0E63
:103260004FEA8E1343EA90638101091A63EB0E0360
:10327000DB0043EA5173C90011EB0C0C43F100036E
:10328000990200234FEA8C2041EA9C51FDF7C4F9D2
:10329000D3E7034800E0034808BD00BF0038024000
:1032A000001BB7000024F400002800F09B8070B5DC
:1032B0000D4604464F4B1B6803F007038B4208D2B0
:1032C000CBB24C4A1370136803F007038B4240F0F3
:1032D0008B80236813F0020F17D013F0040F04D073
:1032E000454A936843F4E0539360236813F0080F52
:1032F00004D0414A936843F4604393603E4A936824
:1033000023F0F003A1680B439360236813F0010FCF
:1033100032D06368012B21D09A1E012A25D9364A62
:10332000126812F0020F61D033498A6822F003025A
:1033300013438B60FEF7E6FC06462F4B9B6803F0B9
:103340000C036268B3EB820F16D0FEF7DBFC801B28
:1033500041F288339842F0D9032042E0264A1268AD
:1033600012F4003FE0D101203BE0234A126812F042
:10337000007FD9D1012034E01E4B1B6803F0070306
:10338000AB4207D9EAB21B4B1A701B6803F0070364
:10339000AB422DD1236813F0040F06D0164A936870
:1033A00023F4E053E1680B439360236813F0080FA4
:1033B00007D0114A936823F46043216943EAC103AB
:1033C0009360FFF71FFF0C4B9B68C3F303130B4A7B
:1033D000D35CD8400A4B18600A4B1868FEF746FCCD
:1033E000002070BD012070470120FAE70120F8E7B6
:1033F0000120F6E7003C024000380240600401086A
:103400001000002018000020014B1868704700BF12
:103410001000002008B5FFF7F7FF044B9B68C3F3CB
:103420008223034AD35CD84008BD00BF0038024065
:103430007004010808B5FFF7E7FF044B9B68C3F36E
:103440004233034AD35CD84008BD00BF0038024075
:10345000700401082DE9F04782B0054688461746FA
:103460001E46FEF74FFC0A9B1B1A03EB0609FEF7EC
:1034700049FC82462B4B1B68C3F3CB3309FB03F398
:1034800001932B689C6838EA04030CBF4FF0010CD1
:103490004FF0000CBC4540D0B6F1FF3FF1D0FEF735
:1034A00031FCA0EB0A0048450AD2B9F1000F07D061
:1034B000019A02B14A46019B013B01939146E0E724
:1034C0002A68536823F0E00353606B68B3F5827F8A
:1034D0000BD0AB6AB3F5005F14D0012385F85130EF
:1034E000002385F85030032018E0AB68B3F5004F97
:1034F00002D0B3F5806FECD12A68136823F0400343
:103500001360E6E72A68136823F4005313602A68FF
:10351000136843F400531360DFE7002002B0BDE8F6
:10352000F08700BF1000002010B584B00446164B91
:103530001868164BA3FB0030400D4FF47A7303FB61
:1035400000F003906368B3F5827F0BD0039BBBB19F
:10355000039B013B039323689B6813F0800FF5D115
:1035600000200EE000920B46002280212046FFF74B
:1035700071FF30B1636D43F020036365032000E009
:10358000002004B010BD00BF10000020819F5E1617
:1035900000285AD010B50446436A33B94368B3F5DE
:1035A000827F05D00023C36102E0002303614361F1
:1035B0000023A36294F85130002B40D0022384F8FA
:1035C00051302268136823F040031360636803F4EA
:1035D0008273A26802F404421343E26802F40062B8
:1035E0001343226902F002021343626902F00102EE
:1035F0001343A26902F400721343E26902F0380235
:103600001343226A02F080021343A26A02F40052BA
:10361000216813430B60638B03F00403626A02F0BA
:103620001002216813434B602268D36923F40063BE
:10363000D36100206065012384F8513010BD84F807
:1036400050302046FEF772F8B8E7012070472DE9A8
:10365000F04383B01F460A9D90F85030012B00F0D4
:103660001081044688469146012380F85030FEF7C9
:1036700049FB064694F85130DBB26268012B0AD050
:10368000B2F5827F40F0E380A268002A40F0E98032
:10369000042B40F0E880B8F1000F00F0E680B9F1AB
:1036A000000F00F0E480002F00F0E38094F8513028
:1036B000DBB2042B02D0052384F85130002363656C
:1036C000C4F83890E787A787C4F83080E786A786D4
:1036D0002364636423681A6812F0400F03D11A68E8
:1036E00042F040021A60E368B3F5006F11D06368DE
:1036F0000BB1012F0BD1226B236812781A73236B45
:1037000001332363E38E9BB2013B9BB2E386012727
:103710006BE063680BB1012F0BD1226B2368128819
:10372000DA60236B02332363E38E9BB2013B9BB2CF
:10373000E38601271CE023689A6812F0010F0ED07F
:10374000E28F92B25AB1DA68A36B1A80A36B02338C
:10375000A363E38F9BB2013B9BB2E3870127FEF794
:10376000D1FA801BA84203D3B5F1FF3F40F083801C
:10377000E38E9BB21BB9E38F9BB2002B53D023681F
:103780009A6812F0020FD6D0E28E92B2002AD2D0FE
:10379000002FD0D0226B1288DA60236B02332363B0
:1037A000E38E9BB2013B9BB2E3860027C3E723680D
:1037B0009A6812F0010F0ED0E28F92B25AB1DA6815
:1037C000A36B1A70A36B0133A363E38F9BB2013B1E
:1037D0009BB2E3870127FEF795FA831BAB4202D326
:1037E000B5F1FF3F49D1002D49D0E38E9BB213B90B
:1037F000E38F9BB2BBB123689A6812F0020FD6D058
:10380000E28E92B2002AD2D0002FD0D0226B127852
:103810001A73236B01332363E38E9BB2013B9BB28C
:10382000E3860027C3E7324629462046FFF77CFEA1
:1038300048B9A36863B901932368DA6801929B6869
:103840000193019B04E020236365012000E0022036
:10385000012384F85130002384F8503003B0BDE8D0
:10386000F0830220F4E70220F2E70120F0E70120D4
:10387000EEE70120ECE70320EAE70320E8E7032076
:10388000E6E70220EAE7000030B4036A23F0010310
:103890000362036A4268846924F073040D682C4350
:1038A00023F0020C8B6843EA0C03104DA84203D0AE
:1038B00005F58065A84205D123F00803CD682B43A8
:1038C00023F00403094DA84203D005F58065A84202
:1038D00005D122F440724D692A438D692A43426022
:1038E00084614A684263036230BC70470000014053
:1038F00030B4036A23F480730362036A4268C469C4
:1039000024F0730C0C6844EA0C0523F400738C68F3
:1039100043EA0423114CA04203D004F58064A04282
:1039200006D123F40063CC6843EA042323F48063C4
:103930000A4CA04203D004F58064A04207D122F4CF
:1039400040524C6942EA04128C6942EA0412426015
:10395000C5614A68C263036230BC70470000014021
:1039600030B4036A23F480530362036A4468C26973
:1039700022F4E6420D6842EA052223F400538D68E2
:1039800043EA0533094DA84203D005F58065A842F6
:1039900004D124F480444D6944EA85144460C26132
:1039A0004A680264036230BC704700BF00000140F7
:1039B000704700000368304A904212D0B0F1804F47
:1039C0000FD0A2F57C4290420BD002F5806290426B
:1039D00007D002F58062904203D002F5784290420F
:1039E00003D123F070034A681343234A90422AD03C
:1039F000B0F1804F27D0A2F57C42904223D002F54F
:103A0000806290421FD002F5806290421BD002F586
:103A10007842904217D002F57052904213D002F5CE
:103A2000806290420FD002F5806290420BD0A2F5E6
:103A30009832904207D002F58062904203D002F59E
:103A40008062904203D123F44073CA68134323F089
:103A500080034A69134303608B68C3620B68836207
:103A6000054B984203D003F58063984201D10B695E
:103A700003630123436170470000014040B310B568
:103A8000044690F83D30F3B1022384F83D302146DE
:103A900051F8040BFFF78EFF012384F8463084F8B9
:103AA0003E3084F83F3084F8403084F8413084F868
:103AB000423084F8433084F8443084F8453084F848
:103AC0003D30002010BD80F83C30FDF767FFDBE79C
:103AD0000120704740B310B5044690F83D30F3B173
:103AE000022384F83D30214651F8040BFFF762FFB2
:103AF000012384F8463084F83E3084F83F3084F85F
:103B0000403084F8413084F8423084F8433084F8FF
:103B1000443084F8453084F83D30002010BD80F8F2
:103B20003C30FFF745FFDBE70120704730B4036A04
:103B300023F010030362036A4468826922F4E642B8
:103B40000D6842EA052223F020038D6843EA05133D
:103B5000114DA84203D005F58065A84206D123F097
:103B60008003CD6843EA051323F040030A4DA842C1
:103B700003D005F58065A84207D124F440644D695F
:103B800044EA85048D6944EA8504446082614A6898
:103B90008263036230BC70470000014038B590F882
:103BA0003C30012B66D004460D46012380F83C30A2
:103BB0000C2A5AD8DFE802F0075959591B595959AC
:103BC0003059595944000068FFF75EFE2268936936
:103BD00043F0080393612268936923F0040393611F
:103BE0002268936929690B43936100203EE00068D5
:103BF000FFF79CFF2268936943F400639361226896
:103C0000936923F48063936122689369296943EA85
:103C100001239361002029E00068FFF769FE226814
:103C2000D36943F00803D3612268D36923F0040306
:103C3000D3612268D36929690B43D361002015E061
:103C40000068FFF78DFE2268D36943F40063D361F7
:103C50002268D36923F48063D3612268D369296918
:103C600043EA0123D361002000E00120002384F80F
:103C70003C3038BD0220FCE738B5044602681369C1
:103C800023F44053C1680B431361836802691343F3
:103C900042691343C2691A430168CB6823F416438F
:103CA00023F00C031343CB600268536923F4407381
:103CB00081690B4353610368314A934206D002F590
:103CC0008062934202D0FFF7A5FB01E0FFF7B2FB51
:103CD000E369B3F5004F29D00021031849411B18AF
:103CE00041F10001C90041EA5371DB001818636813
:103CF0004FEA83024FEA937341F10001FCF78CFC19
:103D0000204DA5FB00325109642303FB11031B0165
:103D10003233A5FB03235B0903F0F00202EB01122F
:103D200003F00F03216813448B6038BD0023021891
:103D300043EB0301121841F10001C90041EA52713D
:103D4000D200101841F10001626892185B41FCF743
:103D500063FC0C4DA5FB00325109642303FB1103E6
:103D6000DB003233A5FB03235B095A0002F4F8722F
:103D700002EB011203F00703216813448B60D4E7C0
:103D8000001001401F85EB512DE9F84305460F4611
:103D900016469946DDF820802C68246837EA04032B
:103DA0000CBF4FF0010C4FF0000CB4452DD1B8F111
:103DB000FF3FF1D0B8F1000F05D0FDF7A3FFA0EB56
:103DC00009004045E8D92A6802F10C0353E8003F96
:103DD00023F4D0730C3242E800310029F3D12A6871
:103DE00002F1140353E8003F23F00103143242E8C8
:103DF00000310029F3D1202385F83D3085F83E308D
:103E0000002385F83C30032000E00020BDE8F88363
:103E100058B310B5044690F83D300BB3242384F812
:103E20003D302268D36823F40053D3602046FFF767
:103E300023FF2268136923F49043136122685369B6
:103E400023F02A0353612268D36843F40053D360FC
:103E500000202064202384F83D3084F83E3010BDDB
:103E600080F83C30FDF754FED8E7012070472DE97B
:103E7000F04182B01E4690F83D30DBB2202B54D189
:103E800004460D469046002953D0002A53D090F89E
:103E90003C30012B51D0012380F83C3000230364D7
:103EA000212380F83D30FDF72DFF0746A4F824803C
:103EB000A4F82680A368B3F5805F05D04FF0000812
:103EC000002384F83C3012E0236913B14FF000085E
:103ED000F6E7A8460025F3E738F8023B2268C3F36B
:103EE00008035360E28C92B2013A92B2E284E38C0E
:103EF0009BB273B100963B46002280212046FFF71B
:103F000043FFE0B9002DE7D015F8012B23685A6074
:103F1000E8E700963B46002240212046FFF734FFA9
:103F200078B9202384F83D3000E0022002B0BDE8DB
:103F3000F0810120FAE70120F8E70220F6E70320EC
:103F4000F4E70320F2E72DE9F04182B01E4690F835
:103F50003E30DBB2202B5CD104460D469046002952
:103F60005BD0002A5BD090F83C30012B59D0012364
:103F700080F83C3000230364222280F83E20036353
:103F8000FDF7C0FE0746A4F82C80A4F82E80A36895
:103F9000B3F5805F05D04FF00008002384F83C3073
:103FA00017E0236913B14FF00008F6E7A846002593
:103FB000F3E723685B68C3F3080328F8023B03E0D8
:103FC00023685B682B700135E28D92B2013A92B2A0
:103FD000E285E38D9BB2BBB100963B4600222021D7
:103FE0002046FFF7D1FEF0B9002DE2D0A368B3F56B
:103FF000805FE5D013B92369002BE1D023685B68AB
:1040000003F07F032B70DEE7202384F83E3000208E
:1040100000E0022002B0BDE8F0810120FAE70120B3
:10402000F8E70220F6E70320F4E7842801D0033004
:1040300070470020704708B500F094FD002008BDCF
:104040002DE9F04387B004460F464569BDB1866946
:10405000AEB1D0F80480D0F80090B0F90800FFF7B6
:10406000E4FF0296019500903B462269494640468E
:1040700000F008FD0590059807B0BDE8F08365687D
:104080002668D4F81080B4F90800FFF7CEFF05AB1E
:10409000019300903B461FFA88F23146284600F013
:1040A0002CFD0128E7D00020E6E708B500B9012083
:1040B00000F0B6FE002008BD00F1080343604FF099
:1040C000FF328260C36003610023036070470023F6
:1040D0000361704743684B609A688A6051609960D9
:1040E0000861036801330360704730B40D68B5F1AF
:1040F000FF3F11D000F108031C465B681A68AA4212
:10410000FAD963684B6099608C60616008610368EC
:104110000133036030BC70470469F2E7036941680A
:1041200082688A60416851605A68824206D00022E3
:1041300002611A68013A1A601868704782685A600A
:10414000F5E7000082B0002301930D4B1B68B3F12B
:10415000FF3F08D04FF0500383F31188BFF36F8FF8
:10416000BFF34F8FFEE74FF0500383F31188BFF387
:104170006F8FBFF34F8F019B002BFCD002B07047B5
:104180001C00002008480068006880F308884FF091
:10419000000080F3148862B661B6BFF34F8FBFF39F
:1041A0006F8F00DF00BF000008ED00E0DFF80C00BB
:1041B000016841F4700101607047000088ED00E083
:1041C0004FF0807340F8043C21F0010140F8081CD6
:1041D000054B40F80C3C40F8202C6FF0020340F8EF
:1041E000243C4438704700BF4541000800000000EF
:1041F000074B19680868B0E8F04F80F30988BFF3EF
:104200006F8F4FF0000080F311887047AFF300808C
:10421000B44B00204FF0500383F31188BFF36F8F2E
:10422000BFF34F8F0B4A136801331360012B00D08B
:1042300070474FF0E023D3F8043D13F0FF0FF7D0A1
:104240004FF0500383F31188BFF36F8FBFF34F8F8D
:10425000FEE700BF1C000020094B1B6843B94FF06C
:10426000500383F31188BFF36F8FBFF34F8FFEE7C7
:10427000013B034A13600BB983F31188704700BFF9
:104280001C000020000000000000000000000000F2
:10429000EFF30980BFF36F8F154B1A681EF0100FF4
:1042A00008BF20ED108A20E9F04F10602DE90900C9
:1042B0004FF0500080F31188BFF34F8FBFF36F8F23
:1042C00000F020FE4FF0000080F3118809BC19684F
:1042D0000868B0E8F04F1EF0100F08BFB0EC108A6D
:1042E00080F30988BFF36F8F704700BFAFF3008082
:1042F000B44B002008B54FF0500383F31188BFF38F
:104300006F8FBFF34F8F00F083FC28B14FF0E02395
:104310004FF08052C3F8042D002383F3118808BDA9
:104320004FF0E022002313619361054B1B680549A0
:10433000A1FB03139B09013B5361072313617047E2
:1043400010000020D34D62104FF0E023D3F8002D71
:104350003D4B9A421CD04FF0E023D3F8002D3B4B4D
:104360009A421ED030B583B0394B1A78D2B201923E
:10437000FF221A701B78DBB28DF803309DF80330F2
:1043800003F05003334A1370334B07221A601BE0CB
:104390004FF0500383F31188BFF36F8FBFF34F8F3C
:1043A000FEE74FF0500383F31188BFF36F8FBFF325
:1043B0004F8FFEE7284A1368013B13609DF80330D6
:1043C0005B00DBB28DF803309DF8033013F0800FF3
:1043D000F0D1214B1B68032B08D04FF0500383F31F
:1043E0001188BFF36F8FBFF34F8FFEE71B021A4A8E
:1043F000136003F4E0631360019BDBB2144A137093
:104400004FF0E024D4F8203D43F47003C4F8203D7D
:10441000D4F8203D43F07043C4F8203DFFF780FFFF
:1044200000250E4B1D60FFF7C1FED4F8343F43F06A
:104430004043C4F8343FFFF7A5FE00F063FDFFF7EB
:1044400081FE284603B030BD71C20F4170C20F41DA
:1044500000E400E08C0F0020900F00201C000020E2
:10446000EFF305830F2B0FD9114A9B5CDBB2114A86
:1044700012789A4208D94FF0500383F31188BFF3A2
:104480006F8FBFF34F8FFEE74FF0E023D3F80C3D63
:1044900003F4E063084A1268934208D94FF05003CE
:1044A00083F31188BFF36F8FBFF34F8FFEE7704721
:1044B000F0E300E08C0F0020900F0020124A12F071
:1044C000070F1ED0D11D21F00701C1F57053134411
:1044D0000A460E480260002141601344083B23F065
:1044E00007030B48036059601960991A5160136003
:1044F000084B1960084B1960084B4FF000421A60D6
:1045000070474FF47053E4E7980F0020AC4B002045
:10451000940F0020A04B00209C4B0020984B0020C3
:10452000164B1A461B688342FBD3516802EB010C01
:10453000844509D0416800EB010C634509D0036054
:10454000904219D010607047406801445160104695
:10455000F0E710B40A4C2468A3420BD05B681944FE
:10456000416013681B680360904200D010605DF8E2
:10457000044B70470460F7E7704700BFAC4B002066
:10458000940F002070B5054600F026FB364B1B68E3
:10459000A3B1364B1B681D424ED135B1083515F01D
:1045A000070F02D025F007050835002D46D0304B07
:1045B0001B68AB4251D32F4A146804E0FFF77EFF1B
:1045C000E7E722461C466368AB4202D22368002B11
:1045D000F7D1254B1B68A34241D0166808362368E3
:1045E000136063685B1B102B10D9601910F0070F64
:1045F00008D04FF0500383F31188BFF36F8FBFF3E0
:104600004F8FFEE743606560FFF78AFF62681849D5
:104610000B689B1A0B60184909688B4201D2164936
:104620000B60124B1B681343636000232360134A23
:1046300013680133136002E0002600E0002600F05A
:1046400073FB16F0070F0CD04FF0500383F3118863
:10465000BFF36F8FBFF34F8FFEE70026EFE7002613
:10466000EDE7304670BD00BF940F0020984B00204E
:104670009C4B0020AC4B0020A04B0020A44B002002
:10468000002834D038B50446A0F1080550F8043CA1
:10469000174A1268134208D14FF0500383F3118870
:1046A000BFF36F8FBFF34F8FFEE750F8081C41B187
:1046B0004FF0500383F31188BFF36F8FBFF34F8F19
:1046C000FEE723EA020340F8043C00F085FA54F8C0
:1046D000041C084A13680B4413602846FFF720FFA8
:1046E000054A13680133136000F01EFB38BD7047A4
:1046F000984B00209C4B0020A84B0020036863B31C
:1047000070B504468E4643685B68436000F1080557
:10471000AB4203D06368DE68002015E05B6843604D
:10472000F8E75B68636014E001330F2B09D8CA18FF
:1047300092F834201EF803C0944502D1002AF3D128
:10474000084660B98E420AD063685B6863609D4228
:10475000E7D06368D9680023E7E70020704770BDA1
:10476000084B1B681B6823B9074B4FF0FF321A60D8
:104770007047044B1B68DB68DB685A68024B1A60A1
:10478000704700BFB84B00208C4C00202DE9F0474B
:1047900007469846089DDDF824900A9C266B02F196
:1047A0008042013A06EB820626F0070600293AD03D
:1047B0008E464FF0000CBCF10F0F0BD81EF80C20EA
:1047C00004EB0C0383F834201EF80C3013B10CF109
:1047D000010CF0E7002384F84330062D00D90625AC
:1047E000E56265644FF0000AC4F848A0201DFFF799
:1047F0006EFC04F11800FFF76AFC2461C5F107059F
:10480000A5616462C4F84CA084F850A042463946C1
:104810003046FFF7D5FC2060B9F1000F01D0C9F890
:104820000040BDE8F087002384F83430D5E700006D
:1048300038B5002407E004EB840293000E481844C6
:10484000FFF73AFC0134062CF5D90C4D2846FFF74A
:1048500033FC0B4C2046FFF72FFC0A48FFF72CFCDB
:104860000948FFF729FC0948FFF726FC084B1D60A3
:10487000084B1C6038BD00BFC04B0020604C0020BE
:10488000744C0020984C0020C44C0020B04C0020F8
:10489000B84B0020BC4B002010B50446FFF7BAFC13
:1048A000214A136801331360204B1B685BB1204B16
:1048B0001B686BB91D4B1B68DA6AE36A9A4207D81A
:1048C0001A4B1C6004E0194B1C601368012B28D0A4
:1048D000184A136801331360E06A01238340164AC3
:1048E00011680B43136000EB8000211D134B03EB99
:1048F0008000FFF7EFFBFFF7AFFC0D4B1B687BB1B0
:104900000A4B1B68DA6AE36A9A4209D24FF0E02345
:104910004FF08052C3F8042DBFF34F8FBFF36F8F5A
:1049200010BDFFF785FFD3E74C4C0020B44B0020AF
:10493000AC4C0020584C00205C4C0020C04B0020A8
:1049400010B5044690F8513063B1012B11D0022B01
:104950000ED04FF0500383F31188BFF36F8FBFF376
:104960004F8FFEE7006BFFF78BFE2046FFF788FEB8
:1049700010BDFFF785FEFBE70F4B1B68D3B110B5E9
:10498000FFF748FC0D4BDB68DC68201DFFF7C6FB1A
:104990000B4A1368013B1360074A1368013B13601D
:1049A000FFF75AFC2046FFF7CBFF034B1B68002B99
:1049B000E6D110BD704700BF504C0020C44C002011
:1049C0004C4C002008B5FFF7D7FF074B1B68012BA5
:1049D000F9D94FF0E0234FF08052C3F8042DBFF314
:1049E0004F8FBFF36F8FEEE7C04B002070B50446CA
:1049F0000D461D4B1E681D4B18680430FFF78EFBDB
:104A000050B91A4B1B68DA6A012303FA02F21849FB
:104A10000B6823EA02030B60B4F1FF3F0DD034446E
:104A2000124B1B685C60A64210D9124B18680F4BE2
:104A300019680431FFF759FB70BD002DEFD00B4B07
:104A4000196804310C48FFF745FBF5E70B4B186874
:104A5000064B19680431FFF748FB094B1B68A3425A
:104A6000EAD9074B1C60E7E7D84C0020B44B002084
:104A70005C4C0020BC4B0020B04C0020B84B002008
:104A80008C4C002030B587B00B9C7CB10C9DB5B12F
:104A900054250495049D542D1AD04FF0500383F3F0
:104AA0001188BFF36F8FBFF34F8FFEE74FF05003B6
:104AB00083F31188BFF36F8FBFF34F8FFEE74FF083
:104AC000500383F31188BFF36F8FBFF34F8FFEE75F
:104AD000049D0C9D2C63022485F85140002403940E
:104AE000029505AC01940A9C0094FFF74FFE0C98C8
:104AF000FFF7D2FE059807B030BD2DE9F04385B031
:104B00000746884614461E469000FFF73BFD00B35B
:104B100081465420FFF736FD0546B0B1C0F830900D
:104B2000E5B1002385F85130039302950D9B019365
:104B30000C9B00933346224641463846FFF726FE3B
:104B40002846FFF7A9FE012005E04846FFF798FD3B
:104B5000E6E74FF0FF3005B0BDE8F0834FF0FF30DF
:104B6000F9E7000010B588B000240594069407AA60
:104B700006A905A8FCF7BEFB059B0293069B0193C3
:104B800000942346079A0E490E48FFF77BFF0E4B11
:104B9000186090B14FF0500383F31188BFF36F8F0B
:104BA000BFF34F8F094B4FF0FF321A60084B0122C1
:104BB0001A60084B1C60FFF7C7FB08B010BD00BFB0
:104BC00080040108C5490008884C00208C4C002056
:104BD000AC4C0020D84C0020024A1368013313600B
:104BE000704700BF544C0020034618B12BB103F1AD
:104BF00034007047054B1B68F8E74FF0500383F310
:104C00001188BFF36F8FBFF34F8FFEE7B44B0020C7
:104C1000F8B53A4B1B68002B69D1394B1D6801353B
:104C20001D60C5B9374B1B681B6843B14FF050037B
:104C300083F31188BFF36F8FBFF34F8FFEE7314AC5
:104C40001168314B186810601960304A13680133DD
:104C50001360FFF785FD2E4B1B68AB423DD9002743
:104C60002C4B1B68DB6A03EB83039A002A4B9B588F
:104C7000012B00D90127294B1B68002B3CD00127B1
:104C80003AE001271F4B1B681B6843B31D4B1B6891
:104C9000DB68DC6863689D4226D3261D3046FFF73B
:104CA0003DFAA36A1BB104F11800FFF737FAE36A73
:104CB00001229A401A49086802430A6003EB830301
:104CC0009A00314614481044FFF704FAE26A114B87
:104CD0001B68DB6A9A42D4D2D4E70027D2E70C4B98
:104CE0004FF0FF321A60BBE7094A1360B8E70D4A7C
:104CF00013680133136000273846F8BD544C002078
:104D0000D84C0020B84B0020BC4B0020904C002019
:104D10008C4C0020B44B0020C04B0020DC4C002009
:104D20005C4C0020944C002038B5354B1B6843B9CF
:104D30004FF0500383F31188BFF36F8FBFF34F8F92
:104D4000FEE7FFF767FA2E4B1A68013A1A601B68F4
:104D5000002B4FD12B4B1B680BB900244BE00024D8
:104D6000294B1B681BB3284BDB68DC6804F1180077
:104D7000FFF7D4F9251D2846FFF7D0F9E06A012393
:104D80008340224A11680B43136000EB80002946E0
:104D90001F4B03EB8000FFF79DF9E26A1D4B1B6878
:104DA000DB6A9A42DCD31C4B01221A60D8E70CB1B3
:104DB000FFF7D6FC194B1C6884B9174B1C68D4B19B
:104DC0004FF0E0234FF08052C3F8042DBFF34F8F14
:104DD000BFF36F8F01240EE0013C07D0FFF718FFEF
:104DE0000028F9D00C4B01221A60F5E70B4B00228A
:104DF0001A60E2E70024FFF72FFA204638BD00BF13
:104E0000544C00204C4C0020984C00205C4C00205E
:104E1000C04B0020B44B0020DC4C0020944C002000
:104E200010B5A8B10446104B1B6843B14FF05003B6
:104E300083F31188BFF36F8FBFF34F8FFEE7FFF748
:104E4000CBFE00212046FFF7D1FDFFF76DFF48B9EB
:104E50004FF0E0234FF08052C3F8042DBFF34F8F83
:104E6000BFF36F8F10BD00BF544C002070B50546D6
:104E7000FBF746FE0F2808D94FF0500383F3118843
:104E8000BFF36F8FBFF34F8FFEE7FFF7A5FE072439
:104E9000013C04EB84002946154B03EB8000FFF72F
:104EA0002DFC064608B9002CF2D136B166B196B198
:104EB000BEB1FFF739FF304670BD0E4B186829466A
:104EC000FFF71CFC0646F1E70B4B18682946FFF775
:104ED00015FC0646EBE729460848FFF70FFC064697
:104EE000E6E729460648FFF709FC0646E1E700BF6A
:104EF000C04B0020B84B0020BC4B0020B04C002021
:104F0000C44C0020204B1B681BB1204B01221A60AF
:104F100070471E4B00221A601D4B1B68B3FA83F3C7
:104F2000DBB2C3F11F0303EB83018A0019498A58DE
:104F300042B94FF0500383F31188BFF36F8FBFF373
:104F40004F8FFEE7134903EB830082000A44506849
:104F50004068506003EB830C4FEA8C020832114426
:104F6000884209D003EB83039A000A4B13445B6821
:104F7000DA68094B1A607047406862469100054A3A
:104F80000A445060EEE700BF544C0020DC4C002087
:104F90005C4C0020C04B0020B44B0020054B1B682C
:104FA00033B1054B1B680BB10020704702207047DE
:104FB00001207047AC4C0020544C002038B5054609
:104FC0000C46FFF727F91A4B1B68DB6C2BB9184B03
:104FD0001B68012283F85020ACB9FFF73DF9FFF7B9
:104FE00019F9134B1B68DC6C24B1DDB1104B1B6845
:104FF0000022DA640E4B1B68002283F85020FFF772
:105000002BF9204638BD11462046FFF7EFFC4FF044
:10501000E0234FF08052C3F8042DBFF34F8FBFF34E
:105020006F8FDAE7024B1B68621EDA64E2E700BFAB
:10503000B44B0020F8B5D8B10D460446FFF710FA7E
:10504000EFF311864FF0500383F31188BFF36F8F96
:10505000BFF34F8F94F85030DBB2022284F8502017
:10506000E26C0132E264012B0BD086F31188F8BDAB
:105070004FF0500383F31188BFF36F8FBFF34F8F4F
:10508000FEE7A36A43B14FF0500383F31188BFF3E7
:105090006F8FBFF34F8FFEE7144B1B68FBB9271DC3
:1050A0003846FFF73BF8E06A01238340104A116855
:1050B0000B43136000EB800039460E4B03EB80007E
:1050C000FFF708F8E26A0C4B1B68DB6A9A42CCD9FE
:1050D0000DB101232B60094B01221A60C5E704F1D1
:1050E00018010748FEF7F6FFECE700BF544C00201C
:1050F0005C4C0020C04B0020B44B0020DC4C002056
:10510000984C002008B100220260704708B1014AA3
:10511000026070470000B04108B50AF04BF9F7EEA5
:10512000007A87EE800A08BD08B503F017FF08BDB6
:1051300008B503F059FF08BD08B50AF00DF908BD20
:1051400008B50AF035F908BD074B1B68074AA2FBF2
:105150000312920C06490A70064AA2FB03239B091C
:10516000054A1360704700BF1000002083DE1B4318
:10517000E44C0020D34D6210E04C002010B44FF0FE
:10518000E0235C690C4A92F800C000FB0CFC9B69B0
:10519000002104E0E01A02441144614509D21A4694
:1051A0004FF0E0239B699A42FAD0F3D9D21A114406
:1051B000F3E75DF8044B7047E44C002008B50B465C
:1051C000920001461846FBF7F7FB08BD014B1B6830
:1051D00058637047580E0020034B1A68D36823F4B5
:1051E0000053D360704700BF000F002010B40D497A
:1051F0000A68D36823F40053D3600B4A1468236809
:1052000023F001032360136858601A6842F001021A
:105210001A600A68D36843F40053D3605DF8044B06
:10522000704700BF000F0020A00E002030B43C4BA0
:105230001B685C6844F002045C605C6844F0010434
:105240005C601C6844F040041C60364B1C6823689A
:1052500023F00103236003E01C6824F001041C60B8
:10526000304B1B681C6814F0010FF5D12E4CA34283
:1052700012D9583C4FF40015E5602C4C9C60D96065
:105280005A60196841F010011960294B19680B68C0
:1052900023F001030B6019E0264CA34205D904F565
:1052A00052744FF40015A560E7E7234CA34204D9DC
:1052B000583C4FF40015E560DFE7204C4FF4001533
:1052C000A560DAE7196821F001011960184B1B6825
:1052D000196811F0010FF5D113498B4209D95839DA
:1052E0004FF00064CC6011499960D8605A6030BCBE
:1052F000704710498B4205D901F552714FF0006497
:105300008C60F0E70C498B4204D958394FF00064A7
:10531000CC60E8E709494FF000648C60E3E700BF28
:10532000FC0D00203C0D0020586402400C30014070
:105330009C0D0020B86002405860024000600240AE
:1053400030B4AD4B1C68236823F001032360AB4BE2
:105350001C68236823F00103236003E01C6824F029
:1053600001041C60A44B1B681C6814F0010FF5D1EC
:1053700003E01C6824F001041C60A04B1B681C683F
:1053800014F0010FF5D19E4CE46C24689D4DAC42A5
:1053900040F29A80A5F58965AC4231D005F580656B
:1053A000AC4276D0A5F56875AC4274D005F5806541
:1053B000AC4272D0A5F58965AC4270D005F5806528
:1053C000AC426FD0A5F56875AC426ED005F580652E
:1053D000AC426DD0A5F58965AC426CD005F5806511
:1053E000AC426BD0A5F56875AC426AD005F5806516
:1053F000AC4202D04FF0006503E04FF4001500E02E
:105400002025814CE5607E4CE46C24687D4DAC42E7
:1054100040F2D481A5F58965AC4200F06B8105F5B9
:105420008065AC4200F0AF81A5F56875AC4200F034
:10543000AC8105F58065AC4200F0A981A5F58965D0
:10544000AC4200F0A68105F58065AC4200F0A48175
:10545000A5F56875AC4200F0A28105F58065AC4207
:1054600000F0A081A5F58965AC4200F09E8105F5AC
:105470008065AC4200F09C81A5F56875AC4200F0F7
:105480009A8105F58065AC4200F031814FF080656E
:1054900031E12025B5E72025B3E72025B1E74FF41A
:1054A0000065AEE74FF40065ABE74FF40065A8E791
:1054B0004FF40065A5E74FF40015A2E74FF400157F
:1054C0009FE74FF400159CE7504DAC4253D9A83DDF
:1054D000AC4231D005F58065AC4231D0A5F5687598
:1054E000AC422FD005F58065AC422DD0A5F589657D
:1054F000AC422BD005F58065AC422AD0A5F5687585
:10550000AC4229D005F58065AC4228D0A5F5896567
:10551000AC4227D005F58065AC4226D0A5F568756C
:10552000AC4225D005F58065AC4202D04FF0006456
:1055300003E04FF4001400E02024334DAC6062E738
:105540002024FAE72024F8E72024F6E74FF400644B
:10555000F3E74FF40064F0E74FF40064EDE74FF435
:105560000064EAE74FF40014E7E74FF40014E4E7BF
:105570004FF40014E1E7264DAC4264D9483DAC42FB
:1055800031D005F58065AC4231D0A5F56875AC42E7
:105590002FD005F58065AC423ED0A5F58965AC42BB
:1055A0003CD005F58065AC423BD0A5F56875AC42B2
:1055B0003AD005F58065AC4239D0A5F58965AC4295
:1055C00038D005F58065AC4237D0A5F56875AC429A
:1055D00036D005F58065AC4202D04FF0006403E0A0
:1055E0004FF4001400E020240A4DEC600BE7202467
:1055F000FAE72024F8E700BF3C0D00209C0D0020B6
:10560000FC0D00205864024000640240B860024073
:1056100058600240006002402024E5E74FF4006437
:10562000E2E74FF40064DFE74FF40064DCE74FF497
:105630000064D9E74FF40014D6E74FF40014D3E721
:105640004FF40014D0E7B14DAC4231D005F5806580
:10565000AC4231D0A5F56875AC422FD005F5806518
:10566000AC422DD0A5F58965AC422BD005F58065FF
:10567000AC422AD0A5F56875AC4229D005F5806505
:10568000AC4228D0A5F58965AC4227D005F58065E8
:10569000AC4226D0A5F56875AC4225D005F58065ED
:1056A000AC4202D04FF0006403E04FF4001400E07D
:1056B0002024974DAC60A6E62024FAE72024F8E7E2
:1056C0002024F6E74FF40064F3E74FF40064F0E7BA
:1056D0004FF40064EDE74FF40064EAE74FF4001480
:1056E000E7E74FF40014E4E74FF40014E1E74FF468
:1056F000801500E01025874CE560874CE46C246839
:10570000864DAC4240F2D181A5F58965AC4200F0EE
:10571000688105F58065AC4200F0AC81A5F568753F
:10572000AC4200F0A98105F58065AC4200F0A6818D
:10573000A5F58965AC4200F0A38105F58065AC4212
:1057400000F0A181A5F56875AC4200F09F8105F5D8
:105750008065AC4200F09D81A5F58965AC4200F002
:105760009B8105F58065AC4200F09981A5F56875CF
:10577000AC4200F0978105F58065AC4200F02E81C7
:105780004FF000752EE11025B5E71025B3E7102581
:10579000B1E74FF48065AEE74FF48065ABE74FF4B7
:1057A0008065A8E74FF48065A5E74FF48015A2E770
:1057B0004FF480159FE74FF480159CE7584DAC429D
:1057C00053D9A83DAC4231D005F58065AC4231D00B
:1057D000A5F56875AC422FD005F58065AC422DD09B
:1057E000A5F58965AC422BD005F58065AC422AD081
:1057F000A5F56875AC4229D005F58065AC4228D086
:10580000A5F58965AC4227D005F58065AC4226D068
:10581000A5F56875AC4225D005F58065AC4202D08F
:105820004FF0806403E04FF4801400E01024394D01
:10583000AC6062E71024FAE71024F8E71024F6E7DA
:105840004FF48064F3E74FF48064F0E74FF4806432
:10585000EDE74FF48064EAE74FF48014E7E74FF494
:105860008014E4E74FF48014E1E72E4DAC4261D997
:10587000483DAC4231D005F58065AC4231D0A5F54C
:105880006875AC422FD005F58065AC422DD0A5F5EA
:105890008965AC422BD005F58065AC422AD0A5F5D0
:1058A0006875AC4229D005F58065AC4228D0A5F5D5
:1058B0008965AC4227D005F58065AC4234D0A5F5AA
:1058C0006875AC4233D005F58065AC4202D04FF02C
:1058D000806403E04FF4801400E010240C4DEC6071
:1058E0000BE71024FAE71024F8E71024F6E74FF44A
:1058F0008064F3E74FF48064F0E74FF48064EDE7F1
:105900004FF48064EAE74FF48014E7E71060024048
:105910000060024000640240FC0D00205864024018
:10592000B8600240586002404FF48014D6E74FF44C
:105930008014D3E7B14DAC4231D005F58065AC425F
:1059400031D0A5F56875AC422FD005F58065AC4225
:105950002DD0A5F58965AC422BD005F58065AC420C
:105960002AD0A5F56875AC4229D005F58065AC4212
:1059700028D0A5F58965AC4227D005F58065AC42F5
:1059800026D0A5F56875AC4225D005F58065AC42FA
:1059900002D04FF0806403E04FF4801400E0102444
:1059A000974DAC60A9E61024FAE71024F8E710241C
:1059B000F6E74FF48064F3E74FF48064F0E74FF4C8
:1059C0008064EDE74FF48064EAE74FF48014E7E782
:1059D0004FF48014E4E74FF48014E1E74FF400251E
:1059E00000E00825874CE560874CE46C2468874D0F
:1059F000AC4240F2D281A5F58965AC4200F06981E4
:105A000005F58065AC4200F0AD81A5F56875AC4246
:105A100000F0AA8105F58065AC4200F0A781A5F5EC
:105A20008965AC4200F0A48105F58065AC4200F0C8
:105A3000A281A5F56875AC4200F0A08105F58065EE
:105A4000AC4200F09E81A5F58965AC4200F09C81D6
:105A500005F58065AC4200F09A81A5F56875AC4209
:105A600000F0988105F58065AC4200F02F814FF081
:105A700080752FE10825B5E70825B3E70825B1E7CC
:105A80004FF40075AEE74FF40075ABE74FF40075C7
:105A9000A8E74FF40075A5E74FF40025A2E74FF4FF
:105AA00000259FE74FF400259CE7594DAC4253D9A0
:105AB000A83DAC4231D005F58065AC4231D0A5F5AA
:105AC0006875AC422FD005F58065AC422DD0A5F5A8
:105AD0008965AC422BD005F58065AC422AD0A5F58E
:105AE0006875AC4229D005F58065AC4228D0A5F593
:105AF0008965AC4227D005F58065AC4226D0A5F576
:105B00006875AC4225D005F58065AC4202D04FF0F7
